S00E00005369726975732E7372656397
S1130000F8FF0020110400002F9A00002F9A00002E
S11300102F9A00002F9A00002F9A00002F9A0000B8
S11300202F9A00002F9A00002F9A00002F9A0000A8
S11300302F9A00002F9A00002F9A00002F9A000098
S1130040210701002F9A00002F9A00002F9A000028
S11300502F9A00002F9A00002F9A00002F9A000078
S11300602F9A00002F9A00002F9A00002F9A000068
S11300702F9A00002F9A00002F9A00002F9A000058
S11300802F9A00002F9A00002F9A00002F9A000048
S11300902F9A00002F9A00002F9A00002F9A000038
S11300A02F9A00002F9A00002F9A00002F9A000028
S11300B02F9A00002F9A00002F9A00002F9A000018
S11300C02F9A00002F9A00002F9A00002F9A000008
S11300D02F9A00002F9A00002F9A00002F9A0000F8
S11300E02F9A00002F9A00002F9A00002F9A0000E8
S11300F02F9A0000290501002F9A00002F9A000072
S11301002F9A00002F9A00002F9A00002F9A0000C7
S11301102F9A00002F9A00002F9A00002F9A0000B7
S11301202F9A00002F9A00002F9A00002F9A0000A7
S11301302F9A00002F9A00002F9A00002F9A000097
S11301402F9A00002F9A00002F9A00002F9A000087
S113015087060100C5060100E10601002F9A000090
S11301602F9A00002F9A00002F9A00002F9A000067
S11301702F9A00002F9A00002F9A00002F9A000057
S11301802F9A00002F9A00002F9A00002F9A000047
S11301902F9A00002F9A00002F9A00008307010075
S11301A099070100AF070100C7070100DF0701003D
S11301B02F9A00002F9A00002F9A00002F9A000017
S11301C02F9A00002F9A00002F9A00002F9A000007
S11301D02F9A00002F9A00002F9A00002F9A0000F7
S11301E02F9A00002F9A00002F9A00002F9A0000E7
S1130400FFFFFFFFFFFFFFFFFFFFFFFFFEFFFFFFF9
S11304104FF000004FF000014FF000024FF00003D6
S11304204FF000044FF000054FF000064FF00007B6
S11304304FF000084FF000094FF0000A4FF0000B96
S11304404FF0000C62B611F009FDFEE7002800D55C
S113045040427047884201DA080003E0824201DA30
S11304601000FFE77047814200DB080070478842B4
S113047000DB08007047884201DB401A00E0081ADC
S11304807047F0B5002600230024002500271AE059
S1130490FFB217F800C0FFB231F917E00EFB0C668B
S11304A0FFB217F800C013EB0C03FFB231F917C009
S11304B014EB0C04FFB217F800C0FFB217F800E009
S11304C00EFB0C557F1CFFB2D2B29742E0D3D2B2DE
S11304D006FB02F004FB13004FF47A714843D2B2D6
S11304E005FB02F103FB131190FBF1F0F0BDF0B436
S11304F000240025002607E0F6B2375CE419F6B2C2
S113050031F91670ED19761CF6B2DBB29E42F3D3C4
S11305104FF47A7000FB05F0DBB290FBF3F004FBC0
S113052002F1DBB291FBF3F1401AF0BC7047F0B575
S1130530002600230024002500271AE0FFB217F844
S113054000C0FFB217F801E00EFB0C66FFB217F80B
S113055000C013EB0C03FFB217F801C014EB0C043A
S1130560FFB217F800C0FFB217F800E00EFB0C55FD
S11305707F1CFFB2D2B29742E0D3D2B206FB02F0A4
S113058004FB13004FF47A714843D2B205FB02F125
S113059003FB131190FBF1F0F0BDF0B4002400252F
S11305A0002606E0F6B2375CE419F6B2775CED1982
S11305B0761CF6B2DBB29E42F4D34FF47A7000FBA1
S11305C005F0DBB290FBF3F004FB02F1DBB291FB2C
S11305D0F3F1401AF0BC704770B582B0040000A873
S11305E0DFF86C160A680260042200A9DFF85C06D2
S11305F009F00FF900250EE0ADB2FA2000FB05402A
S1130600B6B2315CDFF8440609F0FEF8761CB6B2E7
S1130610FA2EF1DB6D1CADB23C2D01DA0026F6E7B3
S113062073BD0020DFF82C1608700020DFF82416B4
S113063048700020DFF8201608700020DFF8181634
S113064048700020DFF8141608700020DFF80C163C
S113065048707047CF480078012838D1002000E066
S1130660401CCF49C0B2032202FB00110978FF29C4
S113067002D0CA49087005E0C0B23B28F0D1FF207F
S1130680C6490870C5480078FF2806D1FF20C24932
S113069008700020BF4908701FE03B2000E0401EA6
S11306A0BF49C0B2032202FB00110978FF2902D01E
S11306B0B949087011E0B9490978C0B28842EED14D
S11306C0FF20B6490870FF20B349087005E0FF20F9
S11306D0B2490870FF20B0490870DFF8840500783B
S11306E001280CD1FF20AE49AC4A1278032303FB46
S11306F002110870A9480078401CA849087001201C
S11307007047F0B4DFF8681D0978DFF8642D52787B
S1130710DFF85C3D1A70DFF8582D9278DFF8503D11
S11307205A70DFF84C2DD278DFF8443D9A70DFF828
S1130730402D1279DFF8383DDA70DFF8342D10716E
S1130740DFF820251278DFF81C355B78DFF81445D4
S11307502370DFF810359B78DFF808456370DFF805
S11307600435DB78DFF8FC44A370DFF8F8341B7938
S1130770DFF8F044E3708A4BC0B2032404FB003377
S11307801B78DFF8E0442371DFF8DC341B78002B9E
S113079011D1002300E05B1CDBB2052B07DADFF884
S11307A0D04CDBB21C5DFF2CF5D10120EEE001231F
S11307B0DFF8B4442370DFF8AC349B78DFF8A4444A
S11307C024781B1B4FF47A746343DFF8A44CA47899
S11307D0DFF89C5C2D78641B93FBF4F3DFF884440E
S11307E02479DFF88054AD78641B4FF47A756C4338
S11307F0DFF87C5C2D79DFF8786CB678AD1B94FB60
S1130800F5F4DFF8705C2B60DFF8685C2D68DFF8C6
S1130810686CDFF8687C3F7846F82750DFF8605C46
S1130820DFF8586C36787055DFF8500C0078401CAF
S1130830DFF8485C2870002B55D4002C53D514F5F0
S11308407A6083424DDB0120DFF8383C1870DFF812
S1130850200CC078DFF8183C1871DFF8140C80788D
S1130860DFF80C3CD870DFF8080C4078DFF8003C67
S11308709870DFF8FC0B0078DFF8F43B5870DFF871
S1130880F00B0170DFF8DC03C078DFF8D8130871CF
S1130890DFF8D0038078DFF8CC13C870DFF8C40326
S11308A04078DFF8C0138870DFF8B8030078DFF809
S11308B0B4134870DFF8AC030270FF203849DFF846
S11308C0B02B1279032303FB02110870FF20344973
S11308D0DFF89C2BD278032303FB0211087000205D
S11308E054E0012052E0002B4FD5002C4DD413F5D9
S11308F07A60844247DB0120DFF8883B1870DFF818
S1130900700BC078DFF8683B1871DFF8640B8078EF
S1130910DFF85C3BD870DFF8580B4078DFF8503BC9
S11309209870DFF84C0B0078DFF8443B5870DFF820
S1130930400B0170DFF82C03C078DFF8281308712E
S1130940DFF820038078C749C870C6484078C54995
S11309508870C4480078C3494870C2480270FF20B8
S11309600F49DFF80C2B1279032303FB02110870E3
S1130970FF200B49DFF8F82AD278032303FB021186
S11309800870002002E0012000E00120F0BC704764
S1130990000000006305FF1F6705FF1F6605FF1FBA
S11309A01CD7FF1FF8B504000D001600F922002122
S11309B02800FFF74FFD0500F92200213000FFF762
S11309C049FD060000E0761EB54280F23881DFF86A
S11309D06C0CE4B2FA2101FB0400301810F8040C8A
S11309E0DFF8581CE4B2FA2202FB0411715C88425D
S11309F011D2DFF8480CE4B2FA2101FB0400305CA8
S1130A00DFF8381CE4B2FA2202FB0411711811F861
S1130A10041C401A00E00020DFF8241C0978DFF8E9
S1130A20242CE4B2A25C891AC0B28142CBDA864893
S1130A300078DFF8081CE4B2FA2202FB0411715CAE
S1130A408842C0D2DFF8F40BE4B2FA2101FB0400BF
S1130A50301810F8040C7B4909788842B3D2F32E7D
S1130A603DDA79480078DFF8D41BE4B2FA2202FBBD
S1130A7004117118C978884201D2012000E00020D5
S1130A8071490978DFF8B42BE4B2FA2303FB04229A
S1130A90B2181279914201D2012100E000216A4A80
S1130AA01278DFF8983BE4B2FA2707FB0433F31813
S1130AB05B799A4201D2012200E00022624B1B784A
S1130AC0DFF8787BE4B25FF0FA0C0CFB0477F719DB
S1130AD0BF79BB4201D2012305E0002303E00120DA
S1130AE0012101220123E4B2332C4DDBDFF84C7BDE
S1130AF0E4B25FF0FA0C0CFB0477F71917F8057CE5
S1130B00DFF840C19CF800C067453BD2DFF82C7B7E
S1130B10E4B25FF0FA0C0CFB0477F71917F8067CC3
S1130B20DFF820C19CF800C067452BD2464F3F78C0
S1130B30DFF808CBE4B25FF0FA0E0EFB04CC16EB40
S1130B400C0C9CF801C067451CD23F4F3F78DFF87E
S1130B50ECCAE4B25FF0FA0E0EFB04CC16EB0C0CFC
S1130B609CF802C067450DD2C0B201280AD1C9B2AF
S1130B70012907D1D2B2012A04D1DBB2012B01D160
S1130B80012055E0002053E0E4B2292C2EDBDFF8ED
S1130B90AC7AE4B25FF0FA0C0CFB0477F71917F89F
S1130BA0057CDFF8A0C09CF800C067451CD2264F26
S1130BB03F78DFF888CAE4B25FF0FA0E0EFB04CC8B
S1130BC016EB0C0C9CF801C067450DD2C0B201288D
S1130BD00AD1C9B2012907D1D2B2012A04D1DBB2A8
S1130BE0012B01D1012023E0002021E0E4B2152CE7
S1130BF00FDBC0B201280AD1C9B2012907D1D2B290
S1130C00012A04D1DBB2012B01D1012010E0002024
S1130C100EE0C0B201280AD1C9B2012907D1D2B26B
S1130C20012A04D1DBB2012B01D1012000E0002014
S1130C30C0B201287FF4C7AE3000C0B200E0FF208C
S1130C40F2BD000095E2FF1F94E2FF1F00A00640E2
S1130C508023010058E2FF1F5CE2FF1F5AE2FF1FDE
S1130C60C5E2FF1FCCDFFF1FCEE2FF1F2DE9F843D3
S1130C7004000D001600F921DFF8040C00780A3096
S1130C80FFF7F5FB0700DFF8FC0B0078012845D1DE
S1130C90DFF8F40BE4B2032101FB04000078FF2821
S1130CA03CD0F6B2002E39D1E4B2382C1ADBDFF88E
S1130CB0DC0B0078012815D1DFF8CC0BE4B203215A
S1130CC001FB04000078DFF8C81BE4B2615C09187A
S1130CD0F920FFF7CCFB0100FFB23800FFF7C3FB9C
S1130CE007001BE0E4B2382C0CDADFF89C0BE4B20A
S1130CF0032101FB04000178FFB23800FFF7B7FBC2
S1130D0007000BE0DFF8800BE4B2032101FB0400D1
S1130D100178FFB23800FFF7AAFB07000720DFF8CD
S1130D20A01CE4B26054DFF89C0CE4B22754002009
S1130D3000E07F1EFFB2072FC0F2A781DFF8FC1886
S1130D40E4B2FA2202FB0411FFB2791811F8041C70
S1130D50DFF8E828E4B2FA2303FB0422FFB2BA5C0A
S1130D60914213D2DFF8D418E4B2FA2202FB041140
S1130D70FFB2795CDFF8C428E4B2FA2303FB04224F
S1130D80FFB2BA1812F8042C891A00E00021DFF827
S1130D90B0281278DFF8AC38E4B2E35CD21AC9B2F6
S1130DA08A42C6DADFF8201C0978DFF89028E4B21A
S1130DB0FA2303FB0422FFB2BA5C9142B9D2DFF8F2
S1130DC07C18E4B2FA2202FB0411FFB2791811F87C
S1130DD0041CDFF8F82B12789142AAD2FFB2F32F49
S1130DE04EDADFF8E41B0978DFF85028E4B2FA237E
S1130DF003FB0422FFB2BA18D278914201D2012136
S1130E0000E00021DFF8C02B1278DFF83038E4B2BC
S1130E105FF0FA0C0CFB0433FFB2FB181B799A4207
S1130E2001D2012200E00022DFF89C3B1B78DFF8AE
S1130E300CC8E4B25FF0FA0E0EFB04CCFFB217EB61
S1130E400C0C9CF805C0634501D2012300E000238B
S1130E50DFF874CB9CF800C0DFF8E0E7E4B25FF0A1
S1130E60FA0808FB04EEFFB217EB0E0E9EF806E03C
S1130E70F44502D25FF0010C07E05FF0000C04E0DF
S1130E800121012201235FF0010CE4B2332C6BDB5E
S1130E90DFF8A8E7E4B25FF0FA0808FB04EEFFB25B
S1130EA017EB0E0E1EF805ECDFF8208B98F8008087
S1130EB0C64557D2DFF884E7E4B25FF0FA0808FBCE
S1130EC004EEFFB217EB0E0E1EF806ECDFF8FC8AF8
S1130ED098F80080C64545D2DFF860E7E4B25FF0D9
S1130EE0FA0808FB04EEFFB217EB0E0E1EF807EC2F
S1130EF0DFF8D88A98F80080C64533D2DFF8C8EA0C
S1130F009EF800E0DFF83487E4B25FF0FA0909FBE9
S1130F100488FFB217EB080898F80180C64521D26F
S1130F20DFF8A4EA9EF800E0DFF81087E4B25FF08F
S1130F30FA0909FB0488FFB217EB080898F8028045
S1130F40C6450FD2C9B201290CD1D2B2012A09D1A6
S1130F50DBB2012B06D15FFA8CFCBCF1010F01D18D
S1130F60012184E0002182E0E4B2292C47DBDFF890
S1130F70CCE6E4B25FF0FA0808FB04EEFFB217EB2C
S1130F800E0E1EF805ECDFF8448A98F80080C6457A
S1130F9033D2DFF8A8E6E4B25FF0FA0808FB04EE07
S1130FA0FFB217EB0E0E1EF806ECDFF8208A98F855
S1130FB00080C64521D2DFF810EA9EF800E0DFF891
S1130FC07C86E4B25FF0FA0909FB0488FFB217EBF0
S1130FD0080898F80180C6450FD2C9B201290CD17E
S1130FE0D2B2012A09D1DBB2012B06D15FFA8CFC03
S1130FF0BCF1010F01D1012139E0002137E0E4B255
S1131000152C23DBDFF834E6E4B25FF0FA0808FBC2
S113101004EEFFB217EB0E0E1EF805ECDFF8AC89F8
S113102098F80080C6450FD2C9B201290CD1D2B2BA
S1131030012A09D1DBB2012B06D15FFA8CFCBCF189
S1131040010F01D1012112E0002110E0C9B20129F0
S11310500CD1D2B2012A09D1DBB2012B06D15FFA3D
S11310608CFCBCF1010F01D1012100E00021C9B2C7
S113107000293FF45EAEDFF84C1CE4B2032202FB0D
S11310800411C0B23A1F4254401CC0B200280ED111
S1131090F6B2002E01D1FFF7C4FAFF20DFF8241CBA
S11310A0E4B2032202FB041108700020DEE1F6B270
S11310B0002E40F042812900C9B22000C0B2FFF7DF
S11310C020FB012840F09181DFF8FC0B0078002818
S11310D040F03381DFF8AC070078012840F02D811F
S11310E0DFF8E00BE4B2032101FB04000078FF28E1
S11310F000F07581DFF89007E4B2032101FB0400DE
S11311000078FF2800F06B81DFF87C07E4B203214C
S113111001FB04000078DFF8AC1BE4B2032202FBFD
S113112004110978884280F05A81DFF85C07E4B240
S1131130032101FB04000078DFF8881BE4B20322DA
S113114002FB04110978401ADFF84417E4B2615C29
S1131150884280F24481DFF83007E4B2032101FBC6
S1131160040000780938002809D4DFF8580BE4B2E9
S1131170032101FB040000780930FA281FDBE4B2E4
S1131180382C12DB002009E0FF21B94AC0B2815497
S1131190FF21DFF8382BC0B28154401CC0B20528AF
S11311A0F2DB0020DFF8281B0870FF20DFF8141B97
S11311B0E4B2032202FB04110870002056E1DFF8B8
S11311C07C04E4B2FA2101FB0400DFF8BC16E4B2AB
S11311D0032202FB04110978081810F8050CDFF843
S11311E05C14E4B2FA2202FB0411DFF89C26E4B298
S11311F0032303FB04221278511811F8061C51FA38
S113120080F0DFF83814E4B2FA2202FB0411DFF8AC
S11312107826E4B2032303FB04221278511811F850
S1131220071C50FA81F0DFF81414E4B2FA2202FB2E
S11312300411DFF85426E4B2032303FB04221278DA
S1131240511811F8081C50FA81F0DFF8F013E4B2D9
S1131250FA2202FB0411DFF83026E4B2032303FB75
S113126004221278511811F8091C50FA81F0052152
S113127090FBF1F0DFF8C413E4B2FA2202FB04118C
S1131280DFF8402AE4B2032303FB04221278511846
S11312904979DFF8A823E4B2FA2303FB0422DFF838
S11312A0243AE4B25FF0030C0CFB04331B789A1865
S11312B0927952FA81F1E14AE4B2FA2303FB04225F
S11312C0DFF8003AE4B25FF0030C0CFB04331B7844
S11312D09A18D27951FA82F1D84AE4B2FA2303FB7C
S11312E00422DFF8E039E4B25FF0030C0CFB0433B2
S11312F01B789A18127A51FA82F1D04AE4B2FA238E
S113130003FB0422DFF8BC39E4B25FF0030C0CFBEE
S113131004331B789A18527A51FA82F1052291FB10
S1131320F2F1C0B2C9B2401AFFF790F8142836DAC5
S11313300120DFF8F81AE4B26054F6B2002E40F04F
S11313409480EDB2012D63D1BC48E4B2FA2101FBD3
S11313500400FFB2385CB949E4B2FA2202FB04117A
S1131360FFB2791811F8041C401ADFF8C41A087087
S1131370B248E4B2FA2101FB0400FFB2385CDFF8A2
S1131380B41A0870AD48E4B2FA2101FB0400FFB2BC
S1131390381810F8040CDFF8A01A087065E0E4B2FD
S11313A0382C12DB002009E0FF21314AC0B28154FD
S11313B0FF21DFF81829C0B28154401CC0B20528AF
S11313C0F2DB0020DFF808190870FF20DFF8F418BA
S11313D0E4B2032202FB04110870002046E000205E
S11313E0DFF8481AE4B26054A7E70120DFF84C1A8A
S11313F0E4B260540120DFF8481A0870FF20DFF8D7
S1131400C418E4B2032202FB0411087000202DE08A
S1131410EDB2022D29D18948E4B2FA2101FB04007E
S1131420FFB2385C8549E4B2FA2202FB0411FFB230
S1131430791811F8041C401ADFF8F41948707F4831
S1131440E4B2FA2101FB0400FFB2385CDFF8E419CE
S113145048707A48E4B2FA2101FB0400FFB238185C
S113146010F8040CDFF8D01948700120BDE8F283AD
S1131470C4DFFF1F2404FF1FC0D8FF1F92E2FF1F19
S113148084D8FF1FCDE2FF1FF8B504001D00C9B2C8
S1131490D2B2914201D3072604E0561AF6B2072EBF
S11314A000DA0726C9B251FA82F0FA2801DBF927DB
S11314B000E08F18DFF8CC030078012819D1DFF899
S11314C008080078002814D1DFF8BC03E4B2032133
S11314D001FB04000078FF280BD0DFF8AC03E4B272
S11314E0032101FB04000178FFB23800FEF7BFFFBF
S11314F00700DFF8CC04E4B22654DFF8C804E4B2F1
S11315002754F6B2FFB2BE4201D3002095E0FFB2E9
S11315103A00F6B231002000C0B2FFF743FA0700E8
S1131520FFB2FF2F00F08080381FDFF89817E4B275
S1131530032202FB041108702900C9B22000C0B2C2
S1131540FFF7DFF8002812D10120DFF8F018E4B229
S113155060540120DFF8E8180870FF20DFF86417F2
S1131560E4B2032202FB04110870002065E0EDB22E
S1131570012D2AD13148E4B2FA2101FB0400FFB263
S1131580385C2E49E4B2FA2202FB0411FFB2791846
S113159011F8041C401ADFF8981808702748E4B2C0
S11315A0FA2101FB0400FFB2385CDFF888180870E8
S11315B02248E4B2FA2101FB0400FFB2381810F803
S11315C0040CDFF8741808702CE0EDB2022D29D158
S11315D01A48E4B2FA2101FB0400FFB2385C17494F
S11315E0E4B2FA2202FB0411FFB2791811F8041CC8
S11315F0401ADFF83C1848701048E4B2FA2101FBA5
S11316000400FFB2385CDFF82C1848700B48E4B2D1
S1131610FA2101FB0400FFB2381810F8040CDFF8BB
S113162018184870012008E0FF20DFF89816E4B28B
S1131630032202FB041108700020F2BD849CFF1FEA
S113164093E2FF1FC02001002DE9F84304000D00C0
S113165016000027A0460AE05FFA89F9B9F1010FE4
S113166003D1C0B2002800D10127B8F10208EDB2BD
S11316705FFA88F8454580F09A80002201214046AF
S1131680C0B2FFF7F3FA814600220221B8F101004B
S1131690C0B2FFF7EBFA5FFA89F9B9F1010F40F034
S11316A0B580C0B2012840F0B180DFF818065FFAB7
S11316B088F8032101FB08000178DFF808065FFAC7
S11316C088F8032202FB080010F8030CFEF7D3FE8F
S11316D0C0B2082872DAF6B2012E68D1DFF85007DA
S11316E00078DFF84C1749780818022190FBF1F0D4
S11316F01438DFF8F81A0978C0B2884203D2DFF848
S1131700EC0A007808E0DFF8E81A0978C0B28142F0
S113171002D2DFF8DC0A0078DFF8D81A0870DFF8A4
S113172014070078DFF80C1749780818022190FB99
S1131730F1F02838DFF8C01A0978C0B2884203D221
S1131740DFF8B40A007808E0DFF8B01A0978C0B20C
S1131750814202D2DFF8A40A00789B490870DFF8BE
S1131760D8060078DFF8D01649780818022190FBD3
S1131770F1F02330DFF8881A0978C0B2884203D226
S1131780DFF87C0A007808E0DFF8781A0978C0B23C
S1131790814202D2DFF86C0A00788B490978C0B222
S11317A0884202D388480078401E88490870EDB208
S11317B05FFA88F8454535D3FF205EE0FF20DFF867
S11317C004155FFA88F8032202FB08110870FF2051
S11317D0DFF8F0145FFA88F8032202FB081101F81D
S11317E0030CFF20DFF8EC14C870FF20DFF8E414CA
S11317F00871FF20DFF8D414C870FF20DFF8CC1480
S113180008710020DFF8C81408702EE75FFA89F920
S1131810B9F1000F7FF420AFC0B201287FF41CAFF0
S1131820012722E7FFB2012F25D108E0FF20DFF8CE
S11318309414E4B2032202FB04110870641EE4B29F
S11318405FFA88F84445F1D1F6B2012E13D1002491
S11318500EE0FF20DFF87C14E4B26054FF20DFF8D0
S11318606C14E4B260540020DFF864140870641C43
S1131870E4B2032CEDDB4046C0B2BDE8F2830000C5
S11318809FE2FF1F8BE2FF1FD0D7FF1FC6E2FF1F9F
S113189084200100F0B4C9B2C0B2814201D3002057
S11318A08CE0DFF82024C9B2032303FB0122127861
S11318B0FF2A0FD1401E00E0401EFF21DFF8042460
S11318C0C0B2032303FB00221170C0B20028F3D17D
S11318D0002073E0DFF8EC23C0B2032303FB0022F3
S11318E01478DFF8E023C9B2032303FB0122127842
S11318F0C0B2C9B2431AE4B2D2B2944226D2D2B22E
S1131900E4B2121B4FF47A74624392FBF3F30124A2
S1131910421ED2B2C9B24D1CAA424EDBDFF8A45318
S1131920C0B2032606FB00552D7804FB03F64FF4E2
S11319307A7796FBF7F67519DFF88863D2B2032736
S113194007FB02663570641C521EE2E7D2B2E4B2B1
S1131950A24224D2E4B2D2B2A21A4FF47A746243FD
S113196092FBF3F30124421ED2B2C9B24D1CAA4227
S113197023DBD44DC0B2032606FB00552D7804FBAF
S113198003F64FF47A7796FBF7F6AD1BCD4ED2B241
S1131990032707FB02663570641C521EE4E7421EEF
S11319A006E0C848D2B2032303FB02000470521EAF
S11319B0D2B2C9B2481C8242F3DA0120F0BC7047AB
S11319C05CE0FF1F98E0FF1F94E2FF1F95E2FF1FFA
S11319D030B583B00C00BB49E4B2032202FB04110E
S11319E011F8031CB74AE4B2032303FB0422127860
S11319F0914201D2002099E0B249E4B2032202FBF1
S1131A0004110978AF4AE4B2032303FB042212F859
S1131A10032C914211D2AB49E4B2032202FB04111C
S1131A2011F8031CA74AE4B2032303FB042212782F
S1131A30891A032901DB002078E0DFF8581A0968C5
S1131A4040F6B932914206DBDFF84C1A09782829AE
S1131A5001DA00206AE0002100E0401C994AC0B28B
S1131A60032303FB00221278FF2A0CD0954AC0B24C
S1131A70032303FB0022127800ABC9B2CA5401AAA3
S1131A80C9B28854491CC9B204290BD1042200A943
S1131A9001A8FEF74CFD050040F24D40854222DBD3
S1131AA0002043E0C0B23B28D7D1C9B2002901D1FC
S1131AB000203BE09DF800008249E4B2032202FBCF
S1131AC00411097888420CD27E48E4B2032101FB58
S1131AD0040000789DF80010401A322801DA012031
S1131AE024E0002022E004232A0000A901A8FEF734
S1131AF054FDE4B204FB05004FF47A7190FBF1F05D
S1131B00B0F128016F4AE4B2032303FB04221278E4
S1131B1091420ADA6B49E4B2032202FB0411097808
S1131B202830814201DA012000E000203EBD70B57A
S1131B3004000E0010001D00F6B2072E00DA07267E
S1131B40C0B2FA2800DBF920DFF85019097801291E
S1131B5012D1DFF84C19E4B2032202FB0411097814
S1131B60FF2909D0DFF83819E4B2032202FB04117B
S1131B700978C0B2FEF77BFCDFF82819E4B266549A
S1131B80DFF82419E4B26054F6B2C0B2864201D33D
S1131B90002095E0C0B20200F6B231002000C0B2CD
S1131BA0FEF700FF0600F6B2FF2E00F08080301F23
S1131BB0DFF8D01CE4B2032202FB041108702900F0
S1131BC0C9B22000C0B2FEF79CFD002810D101204C
S1131BD09A49E4B26054012099490870FF20DFF863
S1131BE0A41CE4B2032202FB04110870002067E085
S1131BF0EDB2012D2BD1DFF8B408E4B2FA2101FBD8
S1131C000400F6B2305CDFF8A418E4B2FA2202FB56
S1131C100411F6B2711811F8041C401A84490870B2
S1131C20DFF88808E4B2FA2101FB0400F6B2305C64
S1131C3080490870DFF87408E4B2FA2101FB04005B
S1131C40F6B2301810F8040C7B4908702DE0EDB2A0
S1131C50022D2AD1DFF85408E4B2FA2101FB040072
S1131C60F6B2305CDFF84418E4B2FA2202FB041145
S1131C70F6B2711811F8041C401A6D494870DFF867
S1131C802C08E4B2FA2101FB0400F6B2305C694985
S1131C904870DFF81808E4B2FA2101FB0400F6B238
S1131CA0301810F8040C64494870012008E0FF2043
S1131CB0DFF8D01BE4B2032202FB041108700020F9
S1131CC070BD00001CD7FF1FC5E2FF1FCCDFFF1F44
S1131CD0CEE2FF1FC4DFFF1F2DE9F04104000D0019
S1131CE01000611C00E0491CDFF8982BC9B20323E3
S1131CF003FB01221278FF2A07D0DFF8882BC9B230
S1131D00032303FB01210E7805E0C9B23B29EAD184
S1131D10FF2089E0A41EF9220021C0B21E30FEF784
S1131D2099FB8046DFF8000CE4B2205C10F17C01E2
S1131D305FFA88F84046FEF796FB80460123424648
S1131D40D2B23100C9B22000C0B2FFF7F0FE0700E2
S1131D5002234246D2B23100C9B2601EC0B2FFF7BC
S1131D60E6FEFFB2012F05D1C0B2012802D1200046
S1131D70C0B259E0FFB2002F21D1C0B200281ED159
S1131D80F9220021DFF8000D0078DFF8FC3C1B7815
S1131D901818DFF8D83B1B78C01AFEF75BFBDFF896
S1131DA0CC1B0978DFF8C82B1170DFF8DC1C09782C
S1131DB0DFF8B82B1170DFF8D01C08702EE0FF207C
S1131DC0DFF8C01AE4B2032202FB04110870FF20FA
S1131DD0DFF8B01AE4B2032202FB041101F8030C89
S1131DE0F9220021DFF8A00C0078DFF89C3C1B7876
S1131DF01818DFF8783B1B78C01AFEF72BFBDFF8C6
S1131E006C1B0978DFF8682B1170DFF87C1C0978EB
S1131E10DFF8582B1170DFF8701C0870E4B2EDB2D3
S1131E20AC427FF477AFFF20BDE8F08134DBFF1FC5
S1131E3058E2FF1F5CE2FF1F5AE2FF1FE4DFFF1FAF
S1131E40D1E2FF1F2DE9F84306000C00150028001D
S1131E5000E0401CC0B23C2809DADFF8281AC0B2FE
S1131E60032202FB00110978FF29F2D005000020AB
S1131E7000E0401CC0B2062833DADFF83016EDB2B9
S1131E80FA2202FB0511DFF8FC29EDB2032707FB58
S1131E9005221278C0B282185118A1F2E3310978F0
S1131EA0DFF8D02A1278914201D200209CE1DFF8B9
S1131EB0FC15EDB2FA2202FB0511DFF8C829EDB2D8
S1131EC0032707FB05221278C0B282185118A1F229
S1131ED0DD410978DFF89C2A12789142C9D20020AA
S1131EE082E11A00D2B22100C9B23000C0B2FFF7B9
S1131EF0F3FE80465FFA88F8B8F1FF0F09D05FFA65
S1131F0088F8B8F1020F04DB5FFA88F8B8F10A0F19
S1131F100FDA300000E0401EFF21DFF86829C0B26C
S1131F20032303FB00221170C0B20028F3D1002068
S1131F305AE14146C9B2681CC0B2FFF749FD002806
S1131F4013D10120DFF8441B0870300000E0401E6C
S1131F50FF21DFF83029C0B2032303FB00221170F4
S1131F60C0B20028F3D100203EE10220DFF81C1BA0
S1131F70087047463E00F9220021DFF80809FFB245
S1131F80032303FB070010F8030CDFF8F838FFB253
S1131F905FF0030C0CFB073313F8033C53FA80F097
S1131FA0DFF8E038FFB25FF0030C0CFB07331B785B
S1131FB0C01AFEF74FFA8046DFF8B0090078DFF860
S1131FC0B0190870DFF8C00A0078DFF8A0190870AB
S1131FD0DFF8B40A80F80080BF1E00E0BF1E0123B2
S1131FE04246D2B20F213800C0B2FFF74DFA814603
S1131FF002234246D2B20F21781EC0B2FFF744FA40
S11320005FFA89F9B9F1000F00F09480C0B200289A
S113201000F09080DFF8780A0078DFF8741A4978C5
S11320200818022190FBF1F0143870490978C0B205
S1132030884202D26D48007806E06D490978C0B242
S1132040814201D26A4800786A490870DFF8440A7C
S11320500078DFF8401A49780818022190FBF1F063
S1132060283865490978C0B2884202D262480078AB
S113207006E062490978C0B2814201D25F48007823
S1132080DFF8141A0870604800785F494978081826
S1132090022190FBF1F0233059490978C0B28842FB
S11320A002D25748007806E056490978C0B2814206
S11320B001D254480078DFF8E0190978C0B28842A8
S11320C003D3DFF8D4090078401EDFF8A81808709D
S11320D0F9220021DFF8AC07FFB2032303FB07005A
S11320E010F8030CDFF89C37FFB25FF0030C0CFB15
S11320F0073313F8033C53FA80F0DFF88837FFB254
S11321005FF0030C0CFB07331B78C01AFEF7A2F92F
S11321108046DFF858080078DFF854180870DFF8B4
S113212068090078DFF844180870DFF85C0980F863
S113213000801FE0F9220021DFF84C090078DFF865
S113214048391B781818DFF824381B78C01AFEF7B2
S113215081F98046DFF814080078DFF81418087055
S1132160DFF824090078DFF804180870DFF818098C
S113217080F80080FFB2E4B2A74205D0FFB2E4B217
S1132180601C87427FF42AAFDFF8F806EDB2032122
S113219001FB05000078FF281BD1280000E0401C4B
S11321A0DFF8E016C0B2032202FB00110978FF2910
S11321B00AD005003100C9B22800C0B2FFF76AFB9B
S11321C0002810D100200FE0C0B23B28E7D1012045
S11321D00AE03100C9B22800C0B2FFF75BFB002857
S11321E001D1002000E00120BDE8F2835705FF1F64
S11321F05805FF1F93E2FF1F5905FF1F5A05FF1FD4
S11322005B05FF1F5C05FF1F5AE2FF1F30B583B05B
S11322100400C9B2002940F0CF80DFF880080078BC
S1132220322880F2C580DFF87808006800F648504C
S1132230002809D4DFF868080068FEF707F940F6BB
S113224049518842C0F2AF800120DFF85818087065
S1132250FEF700FADFF850080078DFF85018097824
S1132260401A09281EDADFF844080078FF2819D03C
S1132270DFF834080078FF2814D0DFF8300800783D
S113228008E0FF21DFF8FC25C0B2032303FB002292
S11322901170401CDFF810180978C0B28142F0D2E6
S11322A00020F6E0DFF8F807006847F6FF7188427F
S11322B00FD1002008E0FF21DFF8C825C0B20323B6
S11322C003FB00221170401CC0B23C28F3DB002049
S11322D0DFE0DFF8D4070078DFF8D0170978401A78
S11322E0001F002805D4DFF8C8070078401E002826
S11322F001D50020CDE0DFF8B8070078411EDFF8F3
S1132300A8070078DFF8A4271278801A001FFEF7C8
S1132310AEF80100002000E0401CDFF88427C0B2C2
S113232052F8202002F63402012A22DBDFF8841757
S1132330C0B2405CDFF880170870DFF87C070078D3
S1132340001DDFF8741708703B21DFF86807007878
S1132350001DFEF78CF8C0B20100DFF840070078DA
S1132360FEF781F8DFF850170978C0B2884223D30A
S113237006E0C0B2C9B28842CED1002089E0401E36
S1132380FF21DFF80025C0B2032303FB00221170F4
S1132390DFF824170978C0B28842F0D1DFF81807B3
S11323A00078441E08E00020DFF8F816087003E007
S11323B00020DFF8F0160870E4B2B4F10800002839
S11323C001D5002201E0B4F108020021200000E060
S11323D0401EDFF8B034C0B2032505FB00331B7880
S11323E0FF2B0DD0DFF89C34C0B2032505FB00336E
S11323F01B7800ADC9B24B5501ABC9B2C854491CD6
S1132400C9B204290DD1042200A901A8FEF78FF84E
S1132410050004232A0000A901A8FEF7BEF8611CE8
S11324200DE0C0B2D2B29042D2D1002031E0DFF848
S11324305434C9B2032404FB01331A70491CC9B2D1
S11324403C2925DAC9B201FB05024FF47A7392FBE9
S1132450F3F2F92A0DDB00E0491CF920DFF824240B
S1132460C9B2032303FB01221070C9B23B29F3D183
S11324700EE0012ADBDA00E0491C0020DFF8042426
S1132480C9B2032303FB01221070C9B23B29F3D163
S113249001203EBD2004FF1F6C05FF1F8BE2FF1FC0
S11324A0D0D7FF1F5CE0FF1F98E0FF1F849CFF1F35
S11324B070B400240023DFF804060078012840F0FB
S11324C0DD813B2000E0401EDFF8B813C0B20322D8
S11324D002FB00110978FF2902D0FF21FF2209E045
S11324E0C0B20028EFD10020DFF8D015087000201A
S11324F0C5E1401EDFF88C23C0B2032303FB002296
S11325001278FF2A05D1C9B2FF2940F0B381411CDA
S1132510B0E1C9B2FF2900F0AD810200D2B2062AAF
S11325202ADBDFF86033D2B2032404FB023313F84E
S1132530033CFF2B1ED0DFF84C33D2B2032404FB40
S1132540023313F8063CFF2B14D0DFF83833D2B231
S1132550032404FB023313F8093CFF2B0AD0C94BB4
S1132560D2B2032404FB023313F80C3CFF2B01D03A
S1132570002302E0012300E00123D2B2082A4BDB4E
S1132580C04CD2B2032505FB024414F8034CFF2CC3
S113259040D0BC4CD2B2032505FB024414F8064CCF
S11325A0FF2C37D0B74CD2B2032505FB024414F8F4
S11325B0094CFF2C2ED0B34CD2B2032505FB0244A8
S11325C014F80C4CFF2C25D0AE4CD2B2032505FBDD
S11325D0024414F80F4CFF2C1CD0AA4CD2B2032591
S11325E005FB024414F8124CFF2C13D0A54CD2B2B4
S11325F0032505FB024414F8154CFF2C0AD0A14C0A
S1132600D2B2032505FB024414F8184CFF2C01D068
S1132610002402E0012400E001249A4DC9B20326FB
S113262006FB01552D78102D2BDA964DD2B20326D8
S113263006FB02552D78102D23DAC9B2D2B28D1AB9
S11326400D2D1EDA4B1E00E05B1E8E4CC9B2032515
S113265005FB014424788B4DD2B2032606FB0255B8
S11326602D782C19022594FBF5F4864DDBB2032654
S113267006FB03552C70DBB2D2B2541CA342E3D147
S1132680F2E0804DC9B2032606FB01552D78102DCA
S113269042DA7C4DD2B2032606FB02552D78102D6A
S11326A03ADAC9B2D2B28D1A142D35DA754DAD7F2E
S11326B0FF2D0FD1734DED7EFF2D0BD1714D2D7E6E
S11326C0FF2D07D16F4D6D7DFF2D03D16D4DAD7C79
S11326D0FF2D21D0E4B2002C1ED14B1E00E05B1E66
S11326E0684CC9B2032505FB01442478654DD2B278
S11326F0032606FB02552D782C19022594FBF5F4CC
S1132700604DDBB2032606FB03552C70DBB2D2B25C
S1132710541CA342E3D1A7E05A4DC9B2032606FBD9
S113272001552D78102D42DA564DD2B2032606FB00
S113273002552D78102D3ADAC9B2D2B28D1A242D51
S113274035DA504DAD7CFF2D0FD14E4D6D7DFF2DF3
S11327500BD14C4D2D7EFF2D07D14A4DAD7FFF2D62
S113276003D1484DED7EFF2D21D0E4B2002C1ED1C3
S11327704B1E00E05B1E434CC9B2032505FB01441C
S11327802478404DD2B2032606FB02552D782C192D
S1132790022594FBF5F43B4DDBB2032606FB0355FF
S11327A02C70DBB2D2B2541CA342E3D15CE0C9B2B8
S11327B0D2B28C1A062C21DADBB2002B1ED14B1EAE
S11327C000E05B1E2F4CC9B2032505FB01442478AD
S11327D02C4DD2B2032606FB02552D782C19022566
S11327E094FBF5F4274DDBB2032606FB03552C704E
S11327F0DBB2D2B2541CA342E3D135E0C9B2D2B2A7
S11328008B1A032B12DB481E00E0401EFF211D4AD9
S1132810C0B2032303FB00221170C0B20028F4D11C
S11328200220DFF8001D0870002028E04B1E00E0A5
S11328305B1E144CC9B2032505FB01442478114DD9
S1132840D2B2032606FB02552D782C19022594FBDF
S1132850F5F40C4DDBB2032606FB03552C70DBB2FA
S1132860D2B2541CA342E3D1FF21FF220022DFF89D
S1132870B43C1A70C0B200287FF43BAE012070BC97
S1132880704700001CD7FF1FDFF8E4090078012817
S113289001D1012047E0DFF8DC09006847F6FF7149
S11328A0884201D1012009E0DFF8C809006810F569
S11328B0FA60002801D5012000E000207B49097856
S11328C0FF2903D078490978FF2901D1012109E0C2
S11328D075490978754A1278891A0C2901DA012197
S11328E000E000210122DFF890391B78032B04D08B
S11328F0DFF888391B78012B14D1DFF82C3C1B78C6
S1132900012B04D0DFF8203C1B78002B0AD1C0B285
S1132910012807D1C9B2012904D1D2B2012A01D1B7
S1132920002000E0012070470C20010010B50024B5
S113293000E0641C5A48E4B250F8240047F6FF71E2
S1132940884201D100200FE05548E4B250F8240039
S1132950FDF77CFD40F63501884201DB002003E0F1
S1132960E4B2052CE5D1012010BD00009CE2FF1F5C
S11329709BE2FF1F95E2FF1F0120DFF8A81B0870F0
S113298001204E4908700020404908700020484941
S11329900870002000E0401C47F6FF71404AC0B2B6
S11329A042F82010FF21434AC0B28154C0B23B28F0
S11329B0F1D10020DFF8741B08700020DFF8701BD1
S11329C0087000200AE0FF21DFF8682BC0B28154B0
S11329D0FF21DFF8642BC0B28154401CC0B205282B
S11329E0F1DB0020DFF8541B087047F6FF70DFF8B6
S11329F0501B0860002000E0401C0021DFF8442B3D
S1132A00C0B28154C0B23B28F6D10020DFF8381B95
S1132A100870002000E0401CFF21DFF8302BC0B21A
S1132A20032303FB00221170C0B23B28F3D1022020
S1132A301C490870002000E0401CFF21DFF8102B27
S1132A40C0B28154FF21DFF80C2BC0B28154C0B254
S1132A503B28F1D1FF20DFF8001B0870FF20DFF8CE
S1132A60FC1A0870FF20084908700020DFF80818D5
S1132A700870FF20DFF87C1C08700020DFF8781C49
S1132A8008700120704700009DE2FF1F9EE2FF1FB7
S1132A9058E2FF1F5CE2FF1F94E2FF1FA1E2FF1F49
S1132AA0C0D8FF1F7405FF1F6705FF1F6605FF1FC2
S1132AB092E2FF1F84D8FF1FD5E2FF1F6305FF1FAB
S1132AC02DE9F84F4FF0FF0AFFF756FFDFF82C0C03
S1132AD00078DFF82C1C0870DFF8280C0078DFF889
S1132AE0281C0870DFF8240C0078DFF8241C087018
S1132AF001220B213B20FEF7A7FD0400DFF8140C94
S1132B000470DFF8140C007801281DD1DFF80C0CD8
S1132B100078E4B2A04217D3DFF8000C007835281F
S1132B2012DAFF20DFF8241AE4B2032202FB0411B4
S1132B300870FF20DFF8141AE4B2032202FB041128
S1132B4001F8030C00200FE3E4B2FF2C01D10020B4
S1132B500AE3DFF8AC0B0078DFF8A01B0870DFF89D
S1132B60A80B0078DFF89C1B0870DFF8A40B007832
S1132B70DFF8981B08702500EDB20C2D06DA012051
S1132B80DFF8F4160870DFF86C0B0570F9220021E9
S1132B90DFF8B809EDB2032303FB050010F8030CBA
S1132BA0DFF8A839EDB2032404FB053313F8033C22
S1132BB053FA80F0DFF89439EDB2032404FB0533B3
S1132BC01B78C01AFDF746FC0400DFF89009007872
S1132BD0DFF884190870DFF8480B0078DFF87C19F7
S1132BE00870DFF83C0B04705FF000085FF0000928
S1132BF000264FF0FF0AAD1E00E0AD1E01232200A7
S1132C00D2B20F212800C0B2FEF73EFC8346022355
S1132C102200D2B20F21681EC0B2FEF735FC5FFA63
S1132C208BFBBBF1000F04D1C0B2002801D10121FC
S1132C3000E000215FFA8BFBBBF1010F40F0A5809F
S1132C40C0B2012840F0A1805FF000085FF00009E5
S1132C50AA46DFF8D00A0078DFF8C81A49780818BD
S1132C60022190FBF1F01438DFF8BC1A0978C0B2E5
S1132C70884203D2DFF8B00A007808E0DFF8AC1A23
S1132C800978C0B2814202D2DFF8A00A0078DFF8E6
S1132C90701A0870DFF8980A0078DFF8941A4978F7
S1132CA00818022190FBF1F02838DFF8881A097817
S1132CB0C0B2884203D2DFF87C0A007808E0DFF86B
S1132CC0781A0978C0B2814202D2DFF86C0A00781F
S1132CD0DFF8341A0870DFF8640A0078DFF85C1A49
S1132CE049780818022190FBF1F02330DFF8501ADC
S1132CF00978C0B2884203D2DFF8440A007808E0B9
S1132D00DFF8401A0978C0B2814202D2DFF8340AEF
S1132D100078DFF8F4190978C0B2884203D3DFF8E9
S1132D20E8090078401EDFF8E8190870F92200214C
S1132D30DFF81808EDB2032303FB050010F8030CB9
S1132D40DFF80838EDB2032404FB053313F8033C21
S1132D5053FA80F0DFF8F437EDB2032404FB0533B3
S1132D601B78C01AFDF776FB0400DFF8F007007843
S1132D70DFF8E4170870DFF8A8090078DFF8DC173B
S1132D800870DFF89C090470BFE1C9B2012940F062
S1132D901981DFF8E8040078012800F0BD81DFF82C
S1132DA0A8090078012800F0B7815FFA89F9B9F120
S1132DB0000F6CD1EDB23A2D67DADFF89007EDB26F
S1132DC0032101FB0500C078FF2829D0DFF87C0728
S1132DD0EDB2032101FB05008079FF2820D0F92200
S1132DE00021DFF86807EDB2032303FB0500C07878
S1132DF003235843DFF85437EDB2032404FB0533AF
S1132E009B79B0EB4300FDF725FBDFF84017EDB2EB
S1132E10032202FB0511C978C0B2FDF724FB31E09F
S1132E20DFF838070078DFF830170978401ADFF840
S1132E30281709784118DFF820271170DFF81C17CC
S1132E4009784018DFF814170870DFF810070078C5
S1132E50DFF8081709780818DFF8FC160978401A13
S1132E60DFF8BC180870F9220021DFF8B4080078F4
S1132E70DFF8AC381B781818DFF8E0361B78C01A76
S1132E80FDF7E8FA19F1010910E000206CE1F922DC
S1132E900021DFF88C080078DFF884381B781818D4
S1132EA0DFF8B8361B78C01AFDF7D4FA0400DFF84F
S1132EB0AC060078DFF8A0160870DFF86408007824
S1132EC0DFF898160870DFF8580804705FFA88F87D
S1132ED0B8F1000F18D118F10108280000E0401CD7
S1132EE0C0B23C2809DADFF86416C0B2032202FB40
S1132EF000110978FF29F2D00700FFB23B2F00DB55
S1132F003B27DFF848080770B61C5FFA8AFABAF163
S1132F10FF0F15D0DFF834065FFA8AFA032101FBAC
S1132F200A0000780A280BDADFF820065FFA8AFA2A
S1132F30032101FB0A0010F8030C0A28C0F2E58003
S1132F40F6B20D2E39DBDFF808080078EDB28542C1
S1132F500ED2280000E0401EFF21DFF8F025C0B2A9
S1132F60032303FB00221170C0B20028F3D1D3E085
S1132F70C1480078012802D10320BF490870DFF856
S1132F8094070078392817DBEDB2042D14DB2300F5
S1132F90DBB23A00D2B20121A81EC0B2FEF752FF42
S1132FA0002804D10120DFF88015087003E0022016
S1132FB0DFF874150870AFE0AEE00020DFF86815A4
S1132FC00870A2E05FFA8BFBBBF1010F02D1C0B223
S1132FD0002809D05FFA8BFBBBF1000F40F095800D
S1132FE0C0B2012840F091805FFA89F9B9F1000F6D
S1132FF06CD1EDB23A2D67DADFF85005EDB203215A
S113300001FB0500C078FF2829D0DFF84005EDB2A8
S1133010032101FB05008079FF2820D0F92200213B
S1133020DFF82805EDB2032303FB0500C078032372
S11330305843DFF81835EDB2032404FB05339B79BC
S1133040B0EB4300FDF706FADFF80015EDB20322FA
S113305002FB0511C978C0B2FDF705FA31E0DFF8CB
S1133060FC040078DFF8F0140978401ADFF8E8145B
S113307009784118DFF8E0241170DFF8E0140978CA
S11330804018DFF8D8140870DFF8D0040078DFF8AF
S1133090CC1409780818DFF8C0140978401ADFF84E
S11330A080160870F9220021DFF874060078DFF832
S11330B070361B781818DFF8A4341B78C01AFDF793
S11330C0C9F919F1010910E000204DE0F9220021AD
S11330D0DFF84C060078DFF848361B781818DFF85C
S11330E07C341B78C01AFDF7B5F90400DFF86C04D2
S11330F00078DFF864140870DFF824060078DFF83D
S11331005C140870DFF818060470EDB2002D03D0CB
S1133110EDB2012D7FF471AD5748007801280FD12D
S11331200021DFF8D0050078FFF770F8002803D1FC
S113313001205149087016E002204F49087012E03E
S11331404D48007803280ED1FFF7F0FB01280AD17F
S11331500021DFF8A0050078FFF758F8002802D016
S11331600220454908700120BDE8F28F0020DFF8F5
S1133170641C08700020DFF85C1C48700020DFF835
S1133180581C08700020DFF8501C48700020DFF83D
S11331904C1C08700020DFF8441C48707047DFF8AE
S11331A0400C0078012843D1002000E0401CDFF8E7
S11331B0341CC0B2032202FB00110978FF2903D09A
S11331C0DFF85815087006E0C0B23B28EED1FF20A6
S11331D0DFF848150870DFF844050078FF2808D1A7
S11331E0FF20DFF8041C08700020DFF8F41B0870CF
S11331F026E03B2000E0401EDFF8E81BC0B20322BB
S113320002FB00110978FF2903D0DFF8DC1B0870EA
S113321016E0DFF808150978C0B28842EBD1FF2028
S1133220DFF8F8140870FF20DFF8BC1B087007E013
S1133230FF20DFF8E8140870FF20DFF8AC1B0870EB
S11332400B480078012810D1FF20DFF8981BDFF825
S1133250CC241278032303FB02110870DFF8BC04AA
S11332600078401CDFF8B414087001207047000097
S1133270C5E2FF1F1C04FF1F9AE2FF1FC6E2FF1FE7
S1133280F0B4DFF8181D0978DFF8102D5278DFF854
S11332900C3D1A70DFF8042D9278DFF8003D5A7067
S11332A0DFF8F82CD278DFF8F43C9A70DFF8EC2CD5
S11332B01279DFF8E83CDA70DFF8E02C1071DFF8FF
S11332C02C2B1278DFF8243B5B78DFF8204B23703B
S11332D0DFF8183B9B78DFF8144B6370DFF80C3B86
S11332E0DB78DFF8084BA370DFF8003B1B79DFF8CD
S11332F0FC4AE370DFF8EC3AC0B2032404FB003369
S11333001B78DFF8E84A2371DFF8943C1B78002B24
S113331011D1002300E05B1CDBB2052B07DADFF8D8
S11333207C4CDBB21C5DFF2CF5D10120F8E00123BD
S1133330DFF86C4C2370DFF8B43A9B78DFF8AC4AC2
S113334024781B1B4FF47A746343DFF8504CA47841
S1133350DFF8485C2D78641B93FBF4F3DFF88C4AA8
S11333602479DFF8885AAD78641B4FF47A756C437E
S1133370DFF8285C2D79DFF8246CB678AD1B94FB5C
S1133380F5F4DFF8205C2B60DFF8185C2D68DFF8BB
S1133390186CDFF8187C3F7846F82750DFF8105C8B
S11333A0DFF8086C36787055DFF8000C0078401CA4
S11333B0DFF8F85B2870002B57D4002C55D514F592
S11333C07A6083424FDB0120DFF8E83B1870DFF8B6
S11333D0CC0BC078DFF8C43B1871DFF8C00B8078E1
S11333E0DFF8B83BD870DFF8B40B4078DFF8AC3BBB
S11333F09870DFF8A80B0078DFF8A03B5870DFF86E
S11334009C0B0170DFF8E409C078DFF8E01908715B
S1133410DFF8D8098078DFF8D419C870DFF8CC0950
S11334204078DFF8C8198870DFF8C0090078DFF841
S1133430BC194870DFF8B4090270FF20DFF8A41942
S1133440DFF8582B1279032303FB02110870FF20C5
S1133450DFF89019DFF8442BD278032303FB021121
S1133460087000205CE001205AE0002B57D5002CA6
S113347055D413F57A6084424FDB0120DFF8343BE6
S11334801870DFF8180BC078DFF8103B1871DFF8FC
S11334900C0B8078DFF8043BD870DFF8000B407821
S11334A0DFF8F83A9870DFF8F40A0078DFF8EC3ABD
S11334B05870DFF8E80A0170DFF83009C078DFF8E7
S11334C02C190871DFF824098078DFF82019C870F6
S11334D0DFF818094078DFF814198870DFF80C0950
S11334E00078DFF808194870DFF800090270FF203F
S11334F0DFF8F018DFF8A42A1279032303FB021182
S11335000870FF20DFF8DC18DFF8902AD278032354
S113351003FB02110870002002E0012000E00120FA
S1133520F0BC70476805FF1F99E2FF1FD3E2FF1F3D
S1133530CEE2FF1FC4DFFF1FCCDFFF1FCDE2FF1F62
S11335402404FF1FE4DFFF1FD1E2FF1F1CD7FF1F6E
S11335505CE0FF1F98E0FF1F9BE2FF1F9CE2FF1F40
S113356070B504000E001500F92200213000FCF7AC
S113357071FF0600F92200212800FCF76BFF05000B
S113358000E0761CAE4280F2B280DFF82C0AE4B28E
S1133590FA2101FB040030180079DFF81C1AE4B2A8
S11335A0FA2202FB0411715C884210D2DFF8080A87
S11335B0E4B2FA2101FB0400305CDFF8FC19E4B248
S11335C0FA2202FB041171180979401A00E0002064
S11335D0DFF81C1C0978DFF81C2CE4B2A25C891A01
S11335E0C0B28142CDDADFF8100C0078DFF8C819D8
S11335F0E4B2FA2202FB0411715C8842C1D2DFF802
S1133600B809E4B2FA2101FB040030180079DFF8AC
S1133610201D09788842B4D2032E1FDBDFF8D80BB3
S11336200078DFF89419E4B2FA2202FB041171184D
S113363011F8011C88420FD2DFF8BC0B0078DFF8C8
S11336407819E4B2FA2202FB0411711811F8021C71
S1133650884201D2012002E0002000E00120E4B20F
S1133660332C20DBDFF85019E4B2FA2202FB0411F8
S113367071184979DFF8B82C1278914211D2DFF829
S11336803819E4B2FA2202FB041171188979DFF8BF
S1133690A02C1278914204D2C0B2012801D1012099
S11336A01EE000201CE0E4B2292C13DBDFF808192B
S11336B0E4B2FA2202FB041171184979DFF8702C84
S11336C01278914204D2C0B2012801D1012007E04E
S11336D0002005E0E4B2152C01DB012000E001200C
S11336E0C0B201287FF44DAF3000C0B200E0FF202B
S11336F070BD00006505FF1F99E2FF1F96E2FF1FE2
S113370093E2FF1F97E2FF1F94E2FF1F98E2FF1F5F
S113371095E2FF1FA1E2FF1F8BE2FF1F6C05FF1F55
S11337209DE2FF1F58E2FF1F5705FF1F5805FF1FAB
S11337305CE2FF1F5905FF1F5A05FF1F5AE2FF1FD6
S11337405B05FF1F5C05FF1FB5E2FF1FA2E2FF1F21
S11337506405FF1FF8B505000E0017000021DFF80F
S1133760D40B00780A38FCF77EFE0400DFF8C80B9F
S11337700078002804D0DFF8C00B0078022845D177
S1133780DFF8B80BEDB2032101FB05000078FF2838
S11337903CD0FFB2002F39D1EDB2382D1ADBDFF85F
S11337A0A00B0078012815D1DFF8900BEDB20321AE
S11337B001FB05000078DFF88C1BEDB2695C411A4F
S11337C00020FCF750FE0100E4B22000FCF74FFE9D
S11337D004001BE0EDB2382D0CDADFF8600BEDB21B
S11337E0032101FB05000178E4B22000FCF73BFE55
S11337F004000BE0DFF8440BEDB2032101FB0500EC
S11338000178E4B22000FCF72EFE0400DFF8380B48
S1133810EDB22C54F220DFF8341BEDB268540020D2
S113382000E0641CE4B2F32C80F2F180DFF8881726
S1133830EDB2FA2202FB0511E4B261180979DFF84E
S11338407827EDB2FA2303FB0522E4B2A25C91428D
S113385012D2DFF86417EDB2FA2202FB0511E4B2CA
S1133860615CDFF85427EDB2FA2303FB0522E4B2CE
S1133870A2181279891A00E00021DFF8742912785D
S1133880DFF87039EDB2EB5CD21AC9B28A42C8DAF9
S1133890DFF864190978DFF82027EDB2FA2303FB77
S11338A00522E4B2A25C9142BBD2DFF80C17EDB260
S11338B0FA2202FB0511E4B261180979DFF8702AD3
S11338C012789142ADD2E4B2032C21DBDFF828193F
S11338D00978DFF8E426EDB2FA2303FB0522E4B20B
S11338E0A21812F8012C914210D2DFF80C190978B1
S11338F0DFF8C426EDB2FA2303FB0522E4B2A218D2
S113390012F8022C914201D2012102E0002100E0D0
S11339100121EDB2332D30DBDFF89C26EDB2FA2322
S113392003FB0522E4B2A2185279DFF8043A1B78AB
S11339309A4220D2DFF88026EDB2FA2303FB052257
S1133940E4B2A2189279DFF8E8391B789A4212D2CD
S1133950DFF86426EDB2FA2303FB0522E4B2A218D1
S1133960D279DFF8CC391B789A4204D2C9B2012942
S113397001D101213DE000213BE0EDB2292D22DB04
S1133980DFF83426EDB2FA2303FB0522E4B2A218D1
S11339905279DFF89C391B789A4212D2DFF8182644
S11339A0EDB2FA2303FB0522E4B2A2189279DFF800
S11339B080391B789A4204D2C9B2012901D101216C
S11339C017E0002115E0EDB2152D11DBDFF8E81545
S11339D0EDB2FA2202FB0511E4B261184979DFF86D
S11339E050291278914201D2012102E0002100E025
S11339F00121C9B200293FF414AFDFF8E813EDB296
S1133A00032202FB0511C0B2221D4254401CC0B265
S1133A1000280ED1FFB2002F01D1FFF7A7FBFF2032
S1133A20DFF8C013EDB2032202FB05110870002079
S1133A30CEE1FFB2002F40F03E813100C9B2280030
S1133A40C0B2FFF71DFC012840F08681DFF80C0CA2
S1133A500078002840F02F81DFF8DC080078002887
S1133A6005D0DFF8D4080078022840F02481DFF87C
S1133A70CC08EDB2032101FB05000078FF2800F01B
S1133A806581D848EDB2032101FB05000078FF28C9
S1133A9000F05C81D348EDB2032101FB05000078FE
S1133AA0DFF89818EDB2032202FB05110978884269
S1133AB080F04C81CB48EDB2032101FB0500007876
S1133AC0DFF87818EDB2032202FB05110978401AD9
S1133AD0DFF87018EDB2695C884280F23781C14822
S1133AE0EDB2032101FB050000780938002809D450
S1133AF0DFF84808EDB2032101FB05000078093026
S1133B00FA281EDBEDB2382D12DB002009E0FF217C
S1133B10DFF88824C0B28154FF21B44AC0B2815472
S1133B20401CC0B20528F2DB0020DFF874140870D2
S1133B30FF20AC49EDB2032202FB051108700020FE
S1133B4046E1DFF87404EDB2FA2101FB0500A54952
S1133B50EDB2032202FB05110978081810F8050CD0
S1133B60DFF85414EDB2FA2202FB05119D4AEDB2BE
S1133B70032303FB05221278511811F8061C51FA8D
S1133B8080F0DFF83414EDB2FA2202FB0511954AF5
S1133B90EDB2032303FB05221278511811F8071C18
S1133BA050FA81F0DFF81014EDB2FA2202FB05118D
S1133BB08C4AEDB2032303FB05221278511811F845
S1133BC0081C50FA81F0DFF8F013EDB2FA2202FB80
S1133BD00511844AEDB2032303FB05221278511820
S1133BE011F8091C50FA81F0052190FBF1F0DFF87F
S1133BF0C813EDB2FA2202FB0511DFF84027EDB23B
S1133C00032303FB0522127851184979DFF8A8230E
S1133C10EDB2FA2303FB0522DFF82037EDB25FF0A3
S1133C20030C0CFB05331B789A18927952FA81F134
S1133C30DFF88423EDB2FA2303FB0522DFF8FC3618
S1133C40EDB25FF0030C0CFB05331B789A18D279A4
S1133C5051FA82F1D84AEDB2FA2303FB0522DFF8C8
S1133C60DC36EDB25FF0030C0CFB05331B789A18BD
S1133C70127A51FA82F1D04AEDB2FA2303FB0522FB
S1133C80DFF8B836EDB25FF0030C0CFB05331B789C
S1133C909A18527A51FA82F1052291FBF2F1C0B2DC
S1133CA0C9B2401AFCF7D2FB142832DA0120DFF83B
S1133CB0081BEDB26854FFB2002F40F08880F6B2C2
S1133CC0012E5BD1BC48EDB2FA2101FB0500E4B240
S1133CD0205CB949EDB2FA2202FB0511E4B2611885
S1133CE00979401A3B490870B348EDB2FA2101FB47
S1133CF00500E4B2205C38490870AF48EDB2FA21FF
S1133D0001FB0500E4B220180079DFF8B01A08704E
S1133D105DE0EDB2382D10DB002008E0FF219F4A62
S1133D20C0B28154FF21314AC0B28154401CC0B298
S1133D300528F3DB00209A490870FF202949EDB2D9
S1133D40032202FB05110870002041E00020DFF887
S1133D50681AEDB26854AEE70120DFF8641AEDB2D8
S1133D6068540120DFF85C1A0870FF201D49EDB289
S1133D70032202FB05110870002029E0F6B2022E8E
S1133D8025D18D48EDB2FA2101FB0500E4B2205C97
S1133D908949EDB2FA2202FB0511E4B261180979EE
S1133DA0401A0C4948708448EDB2FA2101FB050021
S1133DB0E4B2205C084948707F48EDB2FA2101FB67
S1133DC00500E4B220180079DFF8F01948700120EA
S1133DD0F2BD00005EE2FF1F62E2FF1F60E2FF1F10
S1133DE06905FF1FD0D7FF1F6D05FF1FDCDFFF1F15
S1133DF0F8B504001D00C9B251FA82F0F22801DBC3
S1133E00F22600E08E18C9B2D2B2914201D3002743
S1133E1000E0571ADFF820050078002804D0DFF806
S1133E2018050078022819D1DFF830080078002836
S1133E3014D1DFF80805E4B2032101FB0400007883
S1133E40FF280BD0DFF8F404E4B2032101FB0400E3
S1133E500178FFB23800FCF706FB0700DFF8E8043E
S1133E60E4B22754DFF8E404E4B22654FFB2F6B215
S1133E70B74201D3002090E0F6B23200FFB239001D
S1133E802000C0B2FFF76CFB0700FFB2FF2F7BD00E
S1133E90381DDFF8F01CE4B2032202FB04110870A1
S1133EA02900C9B22000C0B2FFF7EAF9002812D1F4
S1133EB00120DFF80C19E4B260540120DFF8041982
S1133EC00870FF20DFF8BC1CE4B2032202FB0411DB
S1133ED00870002061E0EDB2012D28D13648E4B22B
S1133EE0FA2101FB0400FFB2385C3349E4B2FA2240
S1133EF002FB0411FFB279180979401ADFF8C818D7
S1133F0008702D48E4B2FA2101FB0400FFB2385CCA
S1133F10DFF8B81808702848E4B2FA2101FB04005D
S1133F20FFB238180079DFF8941808702AE0EDB26F
S1133F30022D27D12048E4B2FA2101FB0400FFB28C
S1133F40385C1D49E4B2FA2202FB0411FFB279186D
S1133F500979401ADFF8701848701748E4B2FA215A
S1133F6001FB0400FFB2385CDFF8601848701248A7
S1133F70E4B2FA2101FB0400FFB238180079DFF83B
S1133F803C184870012008E0FF20DFF8F81BE4B279
S1133F90032202FB041108700020F2BDD4DFFF1FCE
S1133FA0D0E2FF1F2804FF1FECD9FF1FA3E2FF1F6D
S1133FB0B0D9FF1FCFE2FF1F849CFF1F2DE9F843F8
S1133FC004000D0016000027A0460AE05FFA89F9F4
S1133FD0B9F1010F03D1C0B2002800D10127B8F113
S1133FE00208EDB25FFA88F8454580F09980002216
S1133FF001214046C0B2FFF7ADFB814600220221F9
S1134000B8F10100C0B2FFF7A5FB5FFA89F9B9F175
S1134010010F40F0B480C0B2012840F0B080DFF856
S1134020640B5FFA88F8032101FB08000178DFF8CC
S1134030540B5FFA88F8032202FB080010F8030C03
S1134040FCF719FAC0B2082871DAF6B2012E67D16A
S1134050DFF874070078DFF8701749780818022130
S113406090FBF1F01438DFF8201B0978C0B28842C5
S113407003D2DFF8140B007808E0DFF8101B09788E
S1134080C0B2814202D2DFF8040B007858490870AC
S1134090DFF838070078DFF8341749780818022168
S11340A090FBF1F02838DFF8E81A0978C0B28842AA
S11340B003D2DFF8DC0A007808E0DFF8D81A0978C0
S11340C0C0B2814202D2DFF8CC0A00784A490870B3
S11340D0DFF8E8060078DFF8E416497808180221CA
S11340E090FBF1F02330DFF8B01A0978C0B28842AF
S11340F003D2DFF8A40A007808E0DFF8A01A0978F0
S1134100C0B2814202D2DFF8940A00783A490978B1
S1134110C0B2884202D338480078401E84490870EF
S1134120EDB25FFA88F8454535D3FF205EE0FF2005
S1134130DFF8501A5FFA88F8032202FB08110870AE
S1134140FF20DFF8401A5FFA88F8032202FB081107
S113415001F8030CFF20DFF80815C870FF20DFF812
S113416000150871FF20DFF8381AC870FF20DFF847
S1134170301A08710020DFF8A01C08702FE75FFADE
S113418089F9B9F1000F7FF421AFC0B201287FF49F
S11341901DAF012723E7FFB2012F25D108E0FF203F
S11341A0DFF8E019E4B2032202FB04110870641E74
S11341B0E4B25FFA88F84445F1D1F6B2012E13D186
S11341C000240EE0FF20DFF89814E4B26054FF20CE
S11341D0DFF8CC19E4B260540020DFF83C1C08700E
S11341E0641CE4B2032CEDDB4046C0B2BDE8F283AC
S11341F0A4E2FF1FFC200100A5E2FF1FF0B4C9B236
S1134200C0B2814201D300208FE0DFF87829C9B21F
S1134210032303FB01221278FF2A0FD1401E00E082
S1134220401EFF21DFF85C29C0B2032303FB0022F8
S11342301170C0B20028F3D1002076E0DFF84429E1
S1134240C0B2032303FB00221478DFF83829C9B273
S1134250032303FB01221278C0B2C9B2431AE4B2A9
S1134260D2B2944226D2D2B2E4B2121B4FF47A7480
S1134270624392FBF3F30124421ED2B2C9B24D1C35
S1134280AA4251DBDFF8FC58C0B2032606FB0055F6
S11342902D7804FB03F64FF47A7796FBF7F675193D
S11342A0DFF8E068D2B2032707FB02663570641CAE
S11342B0521EE2E7D2B2E4B2A24226D2E4B2D2B2B1
S11342C0A21A4FF47A74624392FBF3F30124421E60
S11342D0D2B2C9B24D1CAA4226DBDFF8A858C0B23C
S11342E0032606FB00552D7804FB03F64FF47A777A
S11342F096FBF7F6AD1BDFF88C68D2B2032707FBF9
S113430002663570641C521EE2E7421E07E0DFF8C5
S11343107408D2B2032303FB02000470521ED2B20B
S1134320C9B2481C8242F2DA0120F0BC7047000096
S1134330A6E2FF1FB0E2FF1F8BE2FF1F1CD7FF1F87
S1134340C6E2FF1F84200100D4E0FF1F10E1FF1F1D
S113435030B583B00C00DFF82C18E4B2032202FB62
S113436004110978DFF81C28E4B2032303FB0422B8
S113437012F8032C914201D20020A3E0DFF80418C4
S1134380E4B2032202FB041111F8031CDFF8F42742
S1134390E4B2032303FB04221278914213D2DFF820
S11343A0E417E4B2032202FB04110978DFF8D427EE
S11343B0E4B2032303FB042212F8032C891A032911
S11343C001DB00207EE0DFF8541A096801F6B831F9
S11343D0002906D5DFF8481A0978282901DA0020CF
S11343E070E0002100E0401CDFF89827C0B20323EE
S11343F003FB00221278FF2A0DD0DFF88827C0B211
S1134400032303FB0022127800ABC9B2CA5401AAE9
S1134410C9B28854491CC9B204290BD1042200A989
S113442001A8FCF784F8050005F24C40002824D5C7
S1134430002047E0C0B23B28D5D1C9B2002901D140
S113444000203FE0DFF83C07E4B2032101FB040055
S113445000789DF8001088420DD29DF80000DFF826
S11344602417E4B2032202FB04110978401A32280B
S113447001DA012026E0002024E004232A0000A918
S113448001A8FCF78AF8E4B204FB05004FF47A7142
S113449090FBF1F0B0F12801DFF8E826E4B2032341
S11344A003FB0422127891420BDADFF8D816E4B247
S11344B0032202FB041109782830814201DA012029
S11344C000E000203EBD70B50400080016001D0089
S11344D0F6B2F22E00DBF226DFF84819097800293B
S11344E004D0DFF840190978022916D15B4909780C
S11344F0002912D1DFF83019E4B2032202FB0411BF
S11345000978FF2909D0DFF82019E4B2032202FB5D
S113451004110978C0B2FBF7A6FFDFF81019E4B262
S11345206054DFF80C19E4B26654C0B2F6B2B0427B
S113453001D3002090E0F6B23200C0B201002000A6
S1134540C0B2FFF70DF80600F6B2FF2E7BD0301D87
S1134550DFF83016E4B2032202FB041108702900CC
S1134560C9B22000C0B2FEF78BFE002810D1012092
S11345709349E4B26054012092490870FF20DFF8A7
S11345800416E4B2032202FB04110870002063E065
S1134590EDB2012D29D1DFF89C08E4B2FA2101FB28
S11345A00400F6B2305CDFF88C18E4B2FA2202FBA5
S11345B00411F6B271180979401A83490870DFF8BA
S11345C07408E4B2FA2101FB0400F6B2305C7F49BE
S11345D00870DFF86008E4B2FA2101FB0400F6B2C7
S11345E030180079754908702BE0EDB2022D28D1FE
S11345F0DFF84008E4B2FA2101FB0400F6B2305CB3
S1134600DFF83018E4B2FA2202FB0411F6B2711892
S11346100979401A6C494870DFF81808E4B2FA21A5
S113462001FB0400F6B2305C68494870DFF8040806
S1134630E4B2FA2101FB0400F6B2301800795F49B4
S11346404870012008E0FF20DFF83815E4B20322A7
S113465002FB04110870002070BD0000C5E2FF1FBA
S1134660D4DFFF1F2DE9F04104000D001000611C90
S113467000E0491CDFF80C25C9B2032303FB012227
S11346801278FF2A07D0DFF8FC24C9B2032303FB06
S113469001210E7805E0C9B23B29EAD1FF2089E067
S11346A0A41EF9220021C0B21E38FBF7D3FE8046B7
S11346B0DFF8280CE4B2205CD0F17C015FFA88F8C2
S11346C04046FBF7D4FE804601233200D2B2414675
S11346D0C9B22000C0B2FFF7F6FE07000223320081
S11346E0D2B24146C9B2601EC0B2FFF7ECFEFFB2BF
S11346F0012F05D1C0B2012802D12000C0B259E077
S1134700FFB2002F21D1C0B200281ED1F92200210E
S1134710DFF8240D0078DFF8203D1B781818DFF847
S1134720003C1B78C01AFBF795FEDFF8F41B0978F0
S1134730DFF8F02B1170DFF8001D0978DFF8E02BAB
S11347401170DFF8F41C08702EE0FF20DFF8341439
S1134750E4B2032202FB04110870FF20DFF82414E2
S1134760E4B2032202FB041101F8030CF922002134
S1134770DFF8C40C0078DFF8C03C1B781818DFF8A9
S1134780A03B1B78C01AFBF765FEDFF8941B097881
S1134790DFF8902B1170DFF8A01C0978DFF8802B6C
S11347A01170DFF8941C0870E4B2EDB2AC427FF4EF
S11347B077AFFF20BDE8F08134DBFF1F60E2FF1F0D
S11347C020E0FF1FD2E2FF1F5EE2FF1F62E2FF1F35
S11347D02DE9F84306000C001500280000E0401CF9
S11347E0C0B23C2809DADFF8541CC0B2032202FB31
S11347F000110978FF29F2D00500002000E0401CD8
S1134800C0B2062835DADFF82C16EDB2FA2202FB24
S11348100511DFF8282CEDB2032707FB05221278D7
S1134820521FC0B2121A5118B1F57A710978DFF823
S1134830F82A1278914201D20020A0E1DFF8F415A1
S1134840EDB2FA2202FB0511DFF8F02BEDB20327DB
S113485007FB05221278521FC0B2121A5118A1F296
S1134860E2410978DFF8C02A12789142C7D20020C9
S113487085E11A00D2B22100C9B23000C0B2FFF7FC
S1134880F1FE80465FFA88F8B8F1FF0F09D05FFAAD
S113489088F8B8F1020F04DB5FFA88F8B8F10A0F60
S11348A00FDA300000E0401EFF21DFF8902BC0B289
S11348B0032303FB00221170C0B20028F3D10020AF
S11348C05DE14146C9B2681CC0B2FFF741FD002852
S11348D013D10120DFF8681B0870300000E0401E8F
S11348E0FF21DFF8582BC0B2032303FB0022117011
S11348F0C0B20028F3D1002041E10220DFF8401BC0
S1134900087047463E00F9220021DFF8300BFFB261
S1134910032303FB070010F8030CDFF8203BFFB26E
S11349205FF0030C0CFB073313F8033C53FA80F0DD
S1134930DFF8083BFFB25FF0030C0CFB07331B7876
S1134940C01AFBF787FD8046DFF8D4090078DFF84A
S1134950D4190870DFF8E00A0078DFF8C419087089
S1134960DFF8D40A80F80080BF1E00E0BF1E0123D8
S11349704246D2B20F213800C0B2FFF739FA81465D
S113498002234246D2B20F21781EC0B2FFF730FA9A
S11349905FFA89F9B9F1000F00F09780C0B20028DE
S11349A000F09380DFF89C0A0078DFF8981A4978C1
S11349B00818022190FBF1F0143873490978C0B249
S11349C0884202D27048007806E070490978C0B283
S11349D0814201D26D480078DFF86C1A0870DFF864
S11349E06C0A0078DFF8641A49780818022190FBF1
S11349F0F1F0283866490978C0B2884202D2644886
S1134A00007806E063490978C0B2814201D2614866
S1134A100078DFF83C1A0870DFF8380A0078DFF80D
S1134A20341A49780818022190FBF1F023305A49CE
S1134A300978C0B2884202D25748007806E0574944
S1134A400978C0B2814201D254480078DFF8001AD4
S1134A500978C0B2884203D3DFF8F4090078401E15
S1134A60DFF8C4180870F9220021DFF8D009FFB27A
S1134A70032303FB070010F8030CDFF8C039FFB26F
S1134A805FF0030C0CFB073313F8033C53FA80F07C
S1134A90DFF8A839FFB25FF0030C0CFB07331B7877
S1134AA0C01AFBF7D7FC8046DFF874080078DFF8FB
S1134AB074180870DFF880090078DFF8641808704B
S1134AC0DFF8740980F800801FE0F9220021DFF884
S1134AD068090078DFF860391B781818DFF8403867
S1134AE01B78C01AFBF7B6FC8046DFF83408007860
S1134AF0DFF830180870DFF840090078DFF8201874
S1134B000870DFF8340980F80080FFB2E4B2A742ED
S1134B1005D0FFB2E4B2601C87427FF427AFDFF810
S1134B201C09EDB2032101FB05000078FF281BD10D
S1134B30280000E0401CDFF80419C0B2032202FB85
S1134B4000110978FF290AD005003100C9B22800F4
S1134B50C0B2FFF753FB002810D100200FE0C0B211
S1134B603B28E7D101200AE03100C9B22800C0B2D5
S1134B70FFF744FB002801D1002000E00120BDE83C
S1134B80F2830000D0D7FF1F5D05FF1F5E05FF1FE6
S1134B905F05FF1F6005FF1F6105FF1F6205FF1F03
S1134BA0DCDFFF1F30B583B00400C9B2002940F038
S1134BB0C580DFF8A4080078322880F2BB80DFF8D3
S1134BC09C08006840F649518842C0F2AE8001203A
S1134BD0DFF88C180870FEF7E2FADFF8880800782E
S1134BE0DFF884180978401A06281DDA8C48007802
S1134BF0FF2819D0DFF874080078FF2814D0DFF8F4
S1134C006808007808E0FF21DFF83028C0B20323E9
S1134C1003FB00221170401CDFF848180978C0B269
S1134C208142F0D20020F6E0DFF83008006847F651
S1134C30FF7188420FD1002008E0FF21DFF8FC2734
S1134C40C0B2032303FB00221170401CC0B23C28F5
S1134C50F3DB0020DFE0DFF80C080078DFF8081849
S1134C600978401A001F002805D4DFF804080078EA
S1134C70401E002801D50020CDE0DFF8F4070078BD
S1134C80411EDFF8E0070078DFF8DC271278801A8D
S1134C90001FFBF7ECFB0100002000E0401CDFF8E4
S1134CA0BC27C0B252F8202040F634039A4222DADC
S1134CB0DFF8C017C0B2405CDFF8BC170870DFF83B
S1134CC0B8070078001DDFF8B01708703B21DFF843
S1134CD0A4070078001DFBF7CAFBC0B20100DFF88F
S1134CE078070078FBF7BFFBDFF88C170978C0B2B0
S1134CF0884223D306E0C0B2C9B28842CED1002094
S1134D0089E0401EFF21DFF83427C0B2032303FBF0
S1134D1000221170DFF860170978C0B28842F0D120
S1134D20DFF854070078441E08E00020DFF830174D
S1134D30087003E00020DFF828170870E4B2B4F12B
S1134D400800002801D5002201E0B4F10802002186
S1134D50200000E0401EDFF8E436C0B2032505FB66
S1134D6000331B78FF2B0DD0DFF8D036C0B20325FB
S1134D7005FB00331B7800ADC9B24B5501ABC9B27A
S1134D80C854491CC9B204290DD1042200A901A8A0
S1134D90FBF7CDFB050004232A0000A901A8FBF7BB
S1134DA0FCFB611C0DE0C0B2D2B29042D2D1002013
S1134DB031E0DFF88836C9B2032404FB01331A70EA
S1134DC0491CC9B23C2925DAC9B201FB05024FF4DA
S1134DD07A7392FBF3F2F92A0DDB00E0491CF92007
S1134DE0DFF85826C9B2032303FB01221070C9B2AD
S1134DF03B29F3D10EE0012ADBDA00E0491C002054
S1134E00DFF83826C9B2032303FB01221070C9B2AC
S1134E103B29F3D101203EBDD0E2FF1F1C04FF1F3C
S1134E206605FF1F8BE2FF1F1CD7FF1FD4E0FF1F87
S1134E3010E1FF1F849CFF1F70B400240023DFF8DF
S1134E403C060078012840F0F7813B2000E0401E3A
S1134E50DFF8E815C0B2032202FB00110978FF292C
S1134E6002D0FF21FF2209E0C0B20028EFD10020C8
S1134E70DFF8081608700020DFE1401EDFF8BC25CB
S1134E80C0B2032303FB00221278FF2A05D1C9B262
S1134E90FF2940F0CD81411CCEE1C9B2FF2900F0C9
S1134EA0C7810200D2B2062A2BDBDFF89035D2B2DA
S1134EB0032404FB023313F8033CFF2B1FD0DFF859
S1134EC07C35D2B2032404FB023313F8063CFF2BD7
S1134ED015D0DFF86835D2B2032404FB023313F88B
S1134EE0093CFF2B0BD0DFF85435D2B2032404FB6A
S1134EF0023313F80C3CFF2B01D0002302E0012302
S1134F0000E00123D2B2082A53DBDFF83045D2B2E5
S1134F10032505FB024414F8034CFF2C47D0DFF8AB
S1134F201C45D2B2032505FB024414F8064CFF2CA1
S1134F303DD0DFF80845D2B2032505FB024414F83E
S1134F40094CFF2C33D0DFF8F444D2B2032505FB1F
S1134F50024414F80C4CFF2C29D0DFF8E044D2B200
S1134F60032505FB024414F80F4CFF2C1FD0DFF877
S1134F70CC44D2B2032505FB024414F8124CFF2C96
S1134F8015D0DFF8B844D2B2032505FB024414F867
S1134F90154CFF2C0BD0DFF8A444D2B2032505FB3B
S1134FA0024414F8184CFF2C01D0002402E0012420
S1134FB000E00124DFF88454C9B2032606FB01553E
S1134FC02D78EB2D2FDBDFF87454D2B2032606FBC9
S1134FD002552D78EB2D26DBC9B2D2B28D1A0D2DD8
S1134FE021DA4B1E00E05B1EDFF85044C9B20325F2
S1134FF005FB01442478DFF84454D2B2032606FBAF
S113500002552D782C19022594FBF5F4DFF82C5465
S1135010DBB2032606FB03552C70DBB2D2B2541C60
S1135020A342E0D1FEE0DFF81454C9B2032606FB24
S113503001552D78EB2D4BDBDFF80054D2B203265B
S113504006FB02552D78EB2D42DBC9B2D2B28D1A84
S1135050142D3DDADFF8E453AD7FFF2D13D1DFF8D3
S1135060DC53ED7EFF2D0ED1DFF8D0532D7EFF2DC6
S113507009D1DFF8C8536D7DFF2D04D1DFF8BC538F
S1135080AD7CFF2D24D0E4B2002C21D14B1E00E0D6
S11350905B1EDFF8A843C9B2032505FB014424784D
S11350A0DFF89853D2B2032606FB02552D782C194B
S11350B0022594FBF5F4DFF88453DBB2032606FBE8
S11350C003552C70DBB2D2B2541CA342E0D1A9E048
S11350D0DFF86853C9B2032606FB01552D78EB2D82
S11350E043DBDFF85853D2B2032606FB02552D7872
S11350F0EB2D3ADBC9B2D2B28D1A242D35DACF4D5D
S1135100AD7CFF2D0FD1CD4D6D7DFF2D0BD1CB4D42
S11351102D7EFF2D07D1C94DAD7FFF2D03D1C74D86
S1135120ED7EFF2D21D0E4B2002C1ED14B1E00E0F9
S11351305B1EC24CC9B2032505FB01442478BF4D54
S1135140D2B2032606FB02552D782C19022594FBB6
S1135150F5F4BA4DDBB2032606FB03552C70DBB223
S1135160D2B2541CA342E3D15CE0C9B2D2B28C1ACD
S1135170062C21DADBB2002B1ED14B1E00E05B1E95
S1135180AE4CC9B2032505FB01442478AB4DD2B221
S1135190032606FB02552D782C19022594FBF5F401
S11351A0A64DDBB2032606FB03552C70DBB2D2B24C
S11351B0541CA342E3D135E0C9B2D2B28B1A032BFB
S11351C012DB481E00E0401EFF219C4AC0B20323AC
S11351D003FB00221170C0B20028F4D10220DFF8D2
S11351E0D8190870002028E04B1E00E05B1E934C89
S11351F0C9B2032505FB01442478904DD2B203269D
S113520006FB02552D782C19022594FBF5F48B4DE1
S1135210DBB2032606FB03552C70DBB2D2B2541C5E
S1135220A342E3D1FF21FF220022DFF88C391A7058
S1135230C0B200287FF421AE012070BC7047DFF8B3
S11352407C090078012801D1012046E0DFF87009CB
S1135250006847F6FF71884201D1012008E0DFF8B9
S113526060090068B0F5FA6F01DD012000E000205C
S11352707D490978FF2903D07A490978FF2901D1AA
S1135280012109E077490978774A1278891A0829AF
S113529001DA012100E000210122DFF828391B781E
S11352A0032B04D0DFF820391B78012B14D1DFF84D
S11352B01C391B78012B04D0DFF810391B78002B24
S11352C00AD1C0B2012807D1C9B2012904D1D2B28E
S11352D0012A01D1002000E001207047482001008C
S11352E010B5002400E0641C5C48E4B250F82400CB
S11352F047F6FF71884201D100200FE05748E4B21D
S113530050F82400FBF7A2F840F63501884201DB8F
S1135310002003E0E4B2052CE5D1012010BD00001B
S1135320ADE2FF1FACE2FF1FA6E2FF1F0120DFF882
S113533088180870012051490870002040490870FD
S113534000204B490870002000E0401C47F6FF7124
S1135350424AC0B242F82010FF21464AC0B28154EA
S1135360C0B23B28F1D10020DFF864180870002097
S1135370DFF86018087000200AE0FF21DFF85828E1
S1135380C0B28154FF21DFF85428C0B28154401CBC
S1135390C0B20528F1DB0020DFF84418087047F696
S11353A0FF70DFF840180860002000E0401C002176
S11353B0DFF83428C0B28154C0B23B28F6D10020B3
S11353C0DFF828180870002000E0401CFF211B4A69
S11353D0C0B2032303FB00221170C0B23B28F4D1F6
S11353E002201F490870002000E0401CFF21DFF864
S11353F00028C0B28154FF21DFF8F827C0B28154DD
S1135400C0B23B28F1D1FF20DFF8EC170870FF2071
S1135410DFF8E8170870FF20074908700020DFF85C
S1135420A4170870FF20DFF8D81708700020DFF8F1
S11354309C17087001207047AEE2FF1FD0D7FF1FF2
S1135440AFE2FF1F5EE2FF1FA4E2FF1F62E2FF1F45
S1135450A5E2FF1F60E2FF1FB2E2FF1FECD9FF1FAE
S11354607505FF1F6D05FF1F6C05FF1F6705FF1FF7
S1135470A3E2FF1FB0D9FF1FD6E2FF1F6905FF1F7C
S11354802DE9F84F4FF0FF0AFFF750FFDFF87407DC
S11354900078DFF874170870DFF870070078DFF819
S11354A070170870DFF86C070078DFF86C17087065
S11354B001220B213B20FEF781FD0400DFF85C078D
S11354C00470E4B2FF2C01D10020FBE2DFF83807BE
S11354D00078DFF830170870DFF834070078DFF859
S11354E02C170870DFF830070078DFF828170870E9
S11354F02500EDB20C2D06DA0120DFF8C81608707D
S1135500DFF8FC060570F9220021DFF81407EDB27C
S1135510032303FB050010F8030CDFF80437EDB296
S1135520032404FB053313F8033C53FA80F0DFF83B
S1135530F036EDB2032404FB05331B78C01AFAF7E6
S113554089FF0400DFF8B4060078DFF8AC160870B1
S1135550DFF8D0060078DFF8A4160870DFF8C40678
S113556004705FF000085FF0000900264FF0FF0AA6
S1135570AD1E00E0AD1EDFF844060078012807D117
S1135580DFF8A4060078EDB2854201D2012099E249
S113559001232200D2B20F212800C0B2FEF728FC5A
S11355A08346DFF818060078012808D1EDB2681E9A
S11355B0DFF874160978884201DA012082E20223B6
S11355C02200D2B20F21681EC0B2FEF711FC5FFAAE
S11355D08BFBBBF1000F04D1C0B2002801D1012123
S11355E000E000215FFA8BFBBBF1010F40F0A580C6
S11355F0C0B2012840F0A1805FF000085FF000090C
S1135600AA46DFF828060078DFF82016497808183B
S1135610022190FBF1F01438DFF814160978C0B2B7
S1135620884203D2DFF80806007808E0DFF80416A1
S11356300978C0B2814202D2DFF8F8050078DFF8B9
S1135640C8150870DFF8F0050078DFF8EC15497824
S11356500818022190FBF1F02838DFF8E0150978EA
S1135660C0B2884203D2DFF8D405007808E0DFF83E
S1135670D0150978C0B2814202D2DFF8C40500789F
S1135680DFF88C150870DFF8BC050078DFF8B41576
S113569049780818022190FBF1F02330DFF8A815AF
S11356A00978C0B2884203D2DFF89C05007808E08C
S11356B0DFF898150978C0B2814202D2DFF88C0570
S11356C00078DFF84C150978C0B2884203D3DFF8BC
S11356D040050078401EDFF840150870F9220021CB
S11356E0DFF83C05EDB2032303FB050010F8030CBF
S11356F0DFF82C35EDB2032404FB053313F8033C27
S113570053FA80F0DFF81835EDB2032404FB0533B7
S11357101B78C01AFAF79EFE0400DFF8E004007854
S1135720DFF8D4140870DFF8FC040078DFF8CC1438
S11357300870DFF8F004047097E1C9B2012940F061
S11357400D81DFF884040078012800F09581DFF8EA
S113575000050078012800F08F815FFA89F9B9F11A
S1135760000F6CD1EDB23A2D67DADFF8B404EDB274
S1135770032101FB0500C078FF2829D0DFF8A0042D
S1135780EDB2032101FB05008079FF2820D0F92226
S11357900021DFF88C04EDB2032303FB0500C0787D
S11357A003235843DFF87834EDB2032404FB0533B4
S11357B09B79B0EB4300FAF74DFEDFF86414EDB2C9
S11357C0032202FB0511C978C0B2FAF750FE31E09A
S11357D0DFF828040078DFF820140978401ADFF88D
S11357E0181409784118DFF810241170DFF80C142C
S11357F009784018DFF804140870DFF80004007812
S1135800DFF8F81309780818DFF8EC130978401A60
S1135810DFF810140870F9220021DFF8080400787A
S1135820DFF800341B781818DFF8D0331B78C01A5F
S1135830FAF710FE19F1010910E0002042E1F92203
S11358400021DFF8E0030078DFF8D8331B7818185C
S1135850DFF8A8331B78C01AFAF7FCFD0400DFF860
S11358609C030078DFF890130870DFF8B803007821
S1135870DFF888130870DFF8AC0304705FFA88F867
S1135880B8F1000F18D118F10108280000E0401CFD
S1135890C0B23C2809DADFF88813C0B2032202FB45
S11358A000110978FF29F2D00700FFB23B2F00DB7B
S11358B03B27DFF8A0030770B61C5FFA8AFABAF137
S11358C0FF0F15D0DFF858035FFA8AFA032101FBB2
S11358D00A000078F1280BDBDFF844035FFA8AFA48
S11358E0032101FB0A0010F8030CF12880F2BD80AB
S11358F0F6B20D2E2EDBDFF860030078EDB28542A0
S11359000DD2280000E0401EFF21C54AC0B2032387
S113591003FB00221170C0B20028F4D1ACE0BF48F0
S11359200078392815DBEDB2042D12DB2300DBB23D
S11359303A00D2B20121A81EC0B2FEF749FF0028E6
S113594003D10120A149087002E002209F49087098
S113595092E091E000209D49087086E05FFA8BFB9D
S1135960BBF1010F02D1C0B2002807D05FFA8BFB54
S1135970BBF1000F79D1C0B2012876D15FFA89F961
S1135980B9F1000F5AD1EDB23A2D55DAA448EDB26F
S1135990032101FB0500C078FF2825D0A048EDB203
S11359A0032101FB05008079FF281DD0F922002185
S11359B09B48EDB2032303FB0500C078032358433F
S11359C0974BEDB2032404FB05339B79B0EB430002
S11359D0FAF740FD9249EDB2032202FB0511C978A2
S11359E0C0B2FAF744FD24E084480078824909787B
S11359F0401A8149097841187F4A11707F49097812
S1135A0040187E4908707D4800787C490978081858
S1135A1079490978401A83490870F922002181489C
S1135A200078804B1B781818744B1B78C01AFAF74F
S1135A3011FD19F101090DE0002043E0F9220021D4
S1135A4078480078774B1B7818186C4B1B78C01A71
S1135A50FAF700FD04006948007867490870714846
S1135A600078664908706F480470EDB2002D03D0C9
S1135A70EDB2012D7FF47EAD5248007801280ED19D
S1135A8000215F480078FFF78DF8002803D101203A
S1135A904C49087015E002204A49087011E0494851
S1135AA0007803280DD1FFF71BFC012809D1002140
S1135AB053480078FFF776F8002802D002204149C5
S1135AC008700120BDE8F28F10B5DFF8900100786E
S1135AD001280FD1DFF888010078002804D10120C3
S1135AE0DFF88011087003E00020DFF878110870F7
S1135AF0012060E0FCF740FF012201213B20FBF77D
S1135B00B5F80400012202213A20FBF7AFF8E4B211
S1135B10012C15D1C0B2012812D1DFF84C0190F844
S1135B20B100DFF8441191F8AE10401AFAF78EFC78
S1135B30082805DA0020DFF82C11087001203AE06B
S1135B40FF20DFF8241181F8B100FF20DFF81811DD
S1135B5081F8AE00FFF7EAFB012201213B20FDF7AB
S1135B60F9FD0400012202213A20FDF7F3FDE4B21D
S1135B70012C13D1C0B2012810D1294890F8B100EA
S1135B80274991F8AE10401AFAF760FC082805DAA4
S1135B900120DFF8D010087001200CE0FF2020491C
S1135BA081F8B100FF201E4981F8AE000220DFF821
S1135BB0B4100870012010BD6E05FF1FC5E2FF1F61
S1135BC02004FF1FABE2FF1FC6E2FF1FAAE2FF1F74
S1135BD0D4E2FF1FD0E2FF1FD4DFFF1FDCDFFF1F73
S1135BE0CFE2FF1F2804FF1F20E0FF1FD2E2FF1FA8
S1135BF0D4E0FF1F10E1FF1FACE2FF1FADE2FF1F67
S1135C006B05FF1FA7E2FF1FA4E2FF1FA8E2FF1F0F
S1135C10A5E2FF1FA9E2FF1FA6E2FF1FB2E2FF1FDA
S1135C20D0D7FF1FAEE2FF1F6605FF1F5EE2FF1F16
S1135C305D05FF1F5E05FF1F62E2FF1F5F05FF1F7B
S1135C406005FF1F60E2FF1F6105FF1F6205FF1F64
S1135C50B5E2FF1FB3E2FF1F6A05FF1FBAE2FF1F91
S1135C60B9E2FF1F8BE2FF1F1CD7FF1F0020704704
S1135C7080B5FFF729FFDFF850020078002804D030
S1135C80DFF84402007802282FD1FCF719FF00281E
S1135C900BD10020DFF834120870FF208849087007
S1135CA0FF20DFF82C12087003E0FCF701FCFAF780
S1135CB0D1FCDFF820020078012804D1DFF81802B3
S1135CC00078012803D0FFF7DBFB002808D100206F
S1135CD0DFF808120870FF20DFF8E811087033E0DD
S1135CE0FFF7AAF8FDF75BFA2EE0FFF7C9FB0028DF
S1135CF008D10020DFF8E4110870FF20DFF8C41198
S1135D00087003E0FFF798F8FDF749FADFF8C401DB
S1135D100078012804D1DFF8C0010078002803D0FE
S1135D20FCF7CEFE00280BD10020DFF8A01108708C
S1135D30FF2063490870FF20DFF89411087003E026
S1135D40FCF7B6FBFAF786FCDFF880010078002840
S1135D5006D1DFF888010078002801D10020ABE0EB
S1135D6002F016F80120DFF8781108700120DFF83E
S1135D707411087001F0A2FD002803D10020DFF89F
S1135D806011087001F0BAFE002803D10020DFF88A
S1135D9054110870DFF834010078012824D1FCF78D
S1135DA073FD002820D10120DFF83C110870002089
S1135DB0DFF818110870DFF81801007800E0401EC1
S1135DC0FF21DFF82821C0B2032303FB0022117056
S1135DD03B490978C0B28842F1D1FF2038490870A4
S1135DE0FF20DFF8EC100870DFF8F00000780128DD
S1135DF025D1FFF724FA002821D10120DFF8F01083
S1135E0008700020DFF8D4100870DFF8E80000788C
S1135E1000E0401EFF21294AC0B2032303FB0022F5
S1135E201170DFF8A0100978C0B28842F1D1FF20C8
S1135E30DFF890100870FF20DFF8B8100870DFF862
S1135E40B8000078012836D0DFF8B00000780128C7
S1135E5031D0DFF8AC00007801282CD0DFF87400D2
S1135E600078012827D000210020C9B2002922D1BE
S1135E70FFF7FCFEC0B201281DD1FAF7EBFBFDF7DA
S1135E808EF901F085FF0120DFF85410087001201D
S1135E90DFF85010087001F011FD002803D1002034
S1135EA0DFF83C10087001F029FE002803D100201F
S1135EB0DFF830100870012002BD0000D0D7FF1FAA
S1135EC06605FF1F6C05FF1F8BE2FF1F6305FF1FA5
S1135ED06705FF1FBAE2FF1FB9E2FF1F6905FF1F35
S1135EE05505FF1F5605FF1FD3E2FF1F1CD7FF1FD9
S1135EF0D4E2FF1F6D05FF1FB7E2FF1FB6E2FF1FCD
