:1000000000000220A5370000571C00005F320000EE
:100010009B3200006D3700009737000000000000A1
:10002000000000000000000000000000A3370000F6
:10003000F138000000000000F3380000A53800008F
:10004000ED380000ED380000ED380000ED3800001C
:10005000ED380000ED380000ED380000ED3800000C
:10006000ED380000ED380000ED380000ED380000FC
:10007000ED380000ED380000ED380000ED380000EC
:10008000ED380000ED380000ED380000ED380000DC
:10009000ED380000ED380000ED380000ED380000CC
:1000A000ED380000ED380000ED380000ED380000BC
:1000B00027140000ED380000ED380000BB130000ED
:1000C000ED380000CF130000ED380000E31300000E
:1000D000ED380000ED380000ED380000ED3800008C
:1000E000ED380000ED380000ED380000ED3800007C
:1000F000F7130000ED3800000B140000ED3800008D
:10010000C1350000D9350000E7350000F5350000A5
:10011000ED380000ED380000ED380000ED3800004B
:10012000ED380000ED380000B1100000ED3800009F
:100130008D330000ED3800000D340000ED38000074
:10014000ED380000ED380000ED380000ED3800001B
:10015000ED380000ED380000ED380000ED3800000B
:10016000ED380000ED380000ED380000ED380000FB
:10017000ED380000ED380000ED380000ED380000EB
:1003F000ED380000ED380000ED380000FFFFFFFF92
:1004000000000000000000000000000000000000EC
:10041000000000F800000000000000333000000081
:1004200000100C06100C0600000000000000000088
:1004300040C07840C0784000043F04043F040400FA
:10044000007088FC08300000001820FF211E00000A
:10045000F008F000E018000000211C031E211E001F
:1004600000F00888700000001E21232419272110A5
:1004700010160E0000000000000000000000000048
:10048000000000E0180402000000000718204000EF
:1004900000020418E00000000040201807000000DF
:1004A000404080F0804040000202010F0102020043
:1004B000000000F0000000000101011F0101010027
:1004C000000000000000000080B07000000000008C
:1004D0000000000000000000000101010101010115
:1004E00000000000000000000030300000000000AC
:1004F0000000000080601804006018060100000081
:1005000000E010080810E000000F102020100F007D
:10051000001010F8000000000020203F2020000004
:10052000007008080888700000302824222130005C
:1005300000300888884830000018202020110E0064
:100540000000C02010F8000000070424243F24000D
:1005500000F80888880808000019212020110E00E2
:1005600000E0108888180000000F112020110E00F4
:1005700000380808C83808000000003F00000000EC
:100580000070880808887000001C222121221C00AD
:1005900000E010080810E0000000312222110F00D6
:1005A000000000C0C000000000000030300000006B
:1005B00000000080000000000000806000000000DB
:1005C00000008040201008000001020408102000F4
:1005D000404040404040400004040404040404003F
:1005E00000081020408000000020100804020100D4
:1005F000007048080808F0000000003036010000D4
:10060000C030C828E810E0000718272423140B0086
:100610000000C038E0000000203C23020227382000
:1006200008F8888888700000203F202020110E00E4
:10063000C0300808080838000718202020100800DB
:1006400008F808080810E000203F202020100F00C4
:1006500008F88888E8081000203F20202320180090
:1006600008F88888E8081000203F200003000000F8
:10067000C03008080838000007182020221E020099
:1006800008F808000008F808203F210101213F2058
:10069000000808F8080800000020203F2020000083
:1006A00000000808F8080800C08080807F00000073
:1006B00008F888C028180800203F200126382000AC
:1006C00008F8080000000000203F20202020300013
:1006D00008F8F800F8F80800203F003F003F20002D
:1006E00008F830C00008F808203F200007183F0035
:1006F000E01008080810E0000F10202020100F0064
:1007000008F808080808F000203F21010101000056
:10071000E01008080810E0000F18242438504F009B
:1007200008F8888888887000203F2000030C30205B
:1007300000708808080838000038202121221C0099
:10074000180808F8080818000000203F20000000E2
:1007500008F808000008F808001F202020201F00CB
:100760000878880000C83808000007380E0100002B
:10077000F80800F80008F800033C0700073C0300F5
:10078000081868808068180820302C03032C30205B
:100790000838C800C83808000000203F20000000CA
:1007A00010080808C8380800203826212020180022
:1007B000000000FE020202000000007F40404000F6
:1007C000000C30C000000000000000010638C0002E
:1007D00000020202FE000000004040407F000000D6
:1007E00000000402020204000000000000000000FB
:1007F00000000000000000008080808080808080F9
:1008000000020204000000000000000000000000E0
:1008100000008080808000000019242222223F20D6
:1008200008F8008080000000003F112020110E0019
:100830000000008080800000000E112020201100A8
:10084000000000808088F800000E112020103F205A
:100850000000808080800000001F222222221300DE
:10086000008080F0888888180020203F2020000029
:100870000000808080808000006B949494936000DE
:1008800008F8008080800000203F210000203F20E9
:1008900000809898000000000020203F20200000E9
:1008A000000000809898000000C08080807F0000D9
:1008B00008F8000080808000203F24022D302000B6
:1008C000000808F8000000000020203F2020000061
:1008D0008080808080808000203F20003F20003F7B
:1008E0008080008080800000203F210000203F2089
:1008F0000000808080800000001F202020201F003A
:10090000808000808000000080FFA12020110E0068
:100910000000008080808000000E112020A0FF8059
:10092000808080008080800020203F212000010006
:10093000000080808080800000332424242419005B
:10094000008080E0808000000000001F2020000068
:100950008080000000808000001F202020103F20A9
:10096000808080000080808000010E300806010039
:1009700080800080008080800F300C030C300F00DE
:1009800000808000808080000020312E0E31200009
:10099000808080000080808080818E701806010039
:1009A00000808080808080000021302C2221300057
:1009B00000000000807C020200000000003F404078
:1009C00000000000FF00000000000000FF00000029
:1009D0000002027C800000000040403F0000000058
:1009E00000060101020204040000000000000000F3
:1009F00001000822DFF82405006850F40050DFF8F9
:100A00001C351860DFF81405006830F48030DFF81A
:100A10000C35186000BF00BF00BF00BF00BF00BFA3
:100A200026E0DFF8F804006830F40040DFF8EC342A
:100A3000186009E00806F4D5DFF8E004006850F417
:100A40000040DFF8D8341860DFF8D004006850F4B4
:100A50008030DFF8C834186000BF00BF00BFDFF887
:100A6000BC04006830F48030DFF8B034186049000E
:100A70001000421EC0B20028DCD1704701000822DD
:100A8000DFF89804006830F40050DFF89034186004
:100A9000DFF88804006830F48030DFF880341860B4
:100AA00000BF00BF00BF00BF00BF00BF29E0DFF8EC
:100AB0006C04006830F40040DFF86034186009E02E
:100AC0000806F4D5DFF85404006850F40040DFF85D
:100AD0004C341860DFF84404006850F48030DFF8CC
:100AE0003C34186000BF00BF00BF00BF00BF00BFA4
:100AF000DFF82804006830F48030DFF82034186014
:100B000049001000421EC0B20028D9D1704710B56C
:100B10000400B1F15000C0B2FFF7B0FF2000C0B236
:100B2000000950F01000C0B2FFF7A8FF14F00F0446
:100B30002000FFF7A3FF10BD70B50400002508E0FA
:100B40002000C0B2FFF754FF761CF6B2842EF7DB0C
:100B50006D1CEDB2082D0CDAB5F15000C0B2FFF7F4
:100B60008DFF0120FFF78AFF1020FFF787FF002687
:100B7000EBE770BD38B5002407E00020FFF738FF31
:100B80006D1CEDB2842DF8DB641CE4B2082C0CDA89
:100B9000B4F15000C0B2FFF771FF0120FFF76EFF04
:100BA0001020FFF76BFF0025EBE731BD80B5012377
:100BB00001221021DFF8640300F0BAF901230122B9
:100BC0000F21DFF8580300F0B3F9012301220E21B1
:100BD000DFF8480300F0ACF9012301220D21DFF812
:100BE0003C0300F0A5F9012301220C21DFF82C03BE
:100BF00000F09EF9052000F0F5F9DFF82003006809
:100C000050F48030DFF814130860DFF81003006838
:100C100030F48050DFF804130860DFF80003006848
:100C200030F48040DFF8F4120860322000F0DAF986
:100C3000DFF8E802006850F48040DFF8E012086056
:100C4000AE20FFF71BFF0020FFF718FF1020FFF773
:100C500015FF4020FFF712FF8120FFF70FFFCF2085
:100C6000FFF70CFFA120FFF709FFC820FFF706FFE1
:100C7000A620FFF703FFA820FFF700FF3F20FFF7A4
:100C8000FDFED320FFF7FAFE0020FFF7F7FED52088
:100C9000FFF7F4FE8020FFF7F1FED920FFF7EEFE0C
:100CA000F120FFF7EBFEDA20FFF7E8FE1220FFF756
:100CB000E5FEDB20FFF7E2FE4020FFF7DFFE20200D
:100CC000FFF7DCFE0220FFF7D9FE8D20FFF7D6FEEE
:100CD0001420FFF7D3FEA420FFF7D0FEA620FFF7D5
:100CE000CDFEAF20FFF7CAFE0020FFF725FF002151
:100CF0000020FFF70CFF01BD2DE9F84304000D00B3
:100D000016005FF000085FF00009002714E0DFF82C
:100D100010025FFA88F85FFA89F919EB08110844A4
:100D2000007AFFF765FE19F101095FFA89F9B9F157
:100D3000080FECDB08347F1CFFB2F05D00282CD0DC
:100D4000FFB2F05DB0F12008E4B2792C01DB0024A1
:100D50006D1C2900C9B22000C0B2FFF7D8FE5FF0B9
:100D600000090CE0DFF8B8015FFA88F85FFA89F94A
:100D700019EB0811405CFFF73BFE19F101095FFA1E
:100D800089F9B9F1080FEDDB691CC9B22000C0B2C6
:100D9000FFF7BDFE5FF00009C7E7BDE8F1832DE96D
:100DA000F84306000C0015005FF0000800275FF014
:100DB00001090BE00020FFF71BFE18F101085FFAA4
:100DC00088F8B8F1100FF5DB0E36BF1CFFB2E85DF6
:100DD000002800F086805FF000085FF0010901E064
:100DE00018F10208DFF83C015FFA88F810F80800F3
:100DF00080281BDBDFF82C015FFA88F810F8080068
:100E0000FFB2E95D8842EBD1DFF818015FFA88F89C
:100E100040444078FFB205EB070149788842DFD1B2
:100E20005FFA88F80E2000FB08F8C146F6B2772E6C
:100E300001DB0026641C2100C9B23000C0B2FFF7FC
:100E400066FEB9F1010F2FD02100C9B23000C0B247
:100E5000FFF75DFE5FF0000809E0DFF8CC0010F856
:100E60000900FFF7C5FD19F1010918F101085FFA42
:100E700088F8B8F10E0FF0DB611CC9B23000C0B2C7
:100E8000FFF745FE5FF000085FFA88F8B8F10E0F33
:100E90009ADADFF8940010F80900FFF7A9FD19F1BC
:100EA000010918F10108EFE77F1C2100C9B23000E9
:100EB000C0B2FFF72CFE5FF0000804E00020FFF74F
:100EC00097FD18F101085FFA88F8B8F1100FF5DB0B
:100ED000611CC9B23000C0B2FFF719FE5FF0000814
:100EE0006DE7BDE8F18370B5002400260AE0DFF865
:100EF0003C00005DFFF77CFD641C6D1CEDB2762D9F
:100F0000F5DB761CF6B2082E06DA3100C9B21020E5
:100F1000FFF7FDFD0E25F1E770BD000080F00F40EA
:100F200000040000D8360000FC2A00006C240000F9
:100F300070B4254C246854F47854234D2C6005007B
:100F4000224EAD1B08D0403D08D0403D08D0403D6A
:100F500008D0403D08D009E01D4C07E01D4C05E0DD
:100F60001D4C03E01D4C01E01D4CFFE74FF4807564
:100F700044F82150D2B2012A15D1426901248C4093
:100F800022434261012B06D10268012313FA01F1C9
:100F9000114301600EE00268012313FA01F132EA05
:100FA0000101016006E04269012313FA01F132EA0E
:100FB0000101416170BC70470268012313FA01F11D
:100FC00051400160704700003880044000F00F403D
:100FD0000090044000A0044000B0044000C0044061
:100FE00000D0044080B580B200F046F801BD30B4B6
:100FF000494B1C6854F001041C600300DBB2012B58
:1010000004D14FF4C063454C236007E00300DBB21A
:10101000022B03D14FF48063414C2360414B0024E9
:101020001C600524404D2C6089B2404C2160D2B236
:10103000012A01D1082100E00021C0B2000110F016
:101040003000084350F04300186030BC704735480A
:101050000068000602D54FF6FF7001E034480068D2
:1010600080B270472F480168490849000160016853
:1010700051F0010101607047010089B2002916D0CA
:1010800025490A6852F001020A60264900220A60D6
:1010900080B2264A10600520234A106001200860B3
:1010A00008680006FCD508684008400008607047E2
:1010B0001C48016851F08001016070471FB5002095
:1010C000FFF758FD1B4A00210D20FFF715FE0022F7
:1010D00042F210710220FFF78AFFFFF7B8FF040009
:1010E000FFF7C0FF24B222001349684600F028F839
:1010F0006A4605210220FFF7FFFD6946042000F043
:101100004EF90221012000F0D5F900200B49884258
:10111000E3D2401CFAE70000388004404C900440C1
:1011200014B00440000004400400044008000440DF
:101130000C0004407438000084380000C02A641099
:101140000CB430B583B00A4606A9029104460025C6
:101150000194009502AB01A9084878441E3000F0C4
:101160007BFA019A157000284EBF04460198041BB3
:10117000204603B030BC5DF80CFB00BF730A0000D2
:1011800010B4C0B2002808D002282CD018D30428EC
:101190004FD03BD305285FD071E0DFF8A022126862
:1011A00052F48062DFF894321A604FF44072DFF834
:1011B00090321A604FF44072DFF888321A605EE0B5
:1011C000DFF87822126852F40062DFF870321A6099
:1011D0004FF44072DFF870321A604FF44072DFF85B
:1011E0006C321A604BE0DFF85422126852F48052DD
:1011F000DFF848321A604FF44072DFF854321A6058
:101200004FF44072DFF84C321A6038E0DFF82C22DD
:10121000126852F40052DFF824321A604FF4407220
:10122000DFF834321A604FF44072DFF830321A605F
:1012300025E0DFF82C22126852F48062DFF82032B9
:101240001A604FF40062DFF81C321A604FF400623B
:10125000DFF814321A6012E0DFF80422126852F448
:101260000062DFF8FC311A604FF44072DFF8FC31A5
:101270001A604FF44072DFF8F8311A60FFE7DFF8C8
:10128000F421C0B252F82020D27812F0F302DFF835
:10129000E431C0B253F82030DA70DFF8D821C0B2A0
:1012A00052F820209278DFF8CC31C0B253F82030C9
:1012B0009A70DFF8C4211468DFF8C02154430A0192
:1012C000B4FBF2F39BB2B3F5005F01DB41F6FF73B1
:1012D000B4FBF1F29BB2B2EB0312DFF89811C0B28B
:1012E00051F820100C7814F0E004C3F304210C43EF
:1012F000DFF88011C0B251F820100C70DFF87411C3
:10130000C0B251F820104B70DFF86811C0B251F82C
:1013100020108C7A14F0E00412F01F022243DFF850
:101320005411C0B251F820108A72DFF84811C0B2CF
:1013300051F82010097C51F08801DFF83821C0B243
:1013400052F820201174DFF82C11C0B251F820108F
:10135000C97851F00C01DFF81C21C0B252F820000E
:10136000C17010BC7047DFF80C11C0B251F82010EA
:1013700009798906F7D5DFF8FC10C0B251F82000D2
:10138000C07970473B4AC0B252F820201279120649
:10139000F8D5384AC0B252F82000C171704738B54C
:1013A00004000D0005E029782000C0B2FFF7EAFF35
:1013B0006D1C28780028F6D131BD80B50020FFF7DC
:1013C000D2FF0100C9B20020FFF7DCFF01BD80B5EC
:1013D0000120FFF7C8FF0100C9B20120FFF7D2FFCB
:1013E00001BD80B50220FFF7BEFF0100C9B2022097
:1013F000FFF7C8FF01BD80B50320FFF7B4FF010070
:10140000C9B20320FFF7BEFF01BD80B50221022053
:1014100000F050F80420FFF7A6FF0100C9B2042035
:10142000FFF7B0FF01BD80B50520FFF79CFF01006D
:10143000C9B20520FFF7A6FF01BD000034800440BB
:101440003C900440389004400CB0044010B004407C
:1014500008C004400CC0044040B0044044B0044004
:101460002880044064D0044060D0044024D004406C
:1014700020D00440080000207800002040420F00E7
:1014800080B50023012200216F48FFF751FD0023A2
:10149000012211216D48FFF74BFD002301221D2180
:1014A0006B48FFF745FD002301220F216948FFF734
:1014B0003FFD01BD80B5C0B2002808D0012822D070
:1014C000022858D003283AD0062870D0BBE0C9B211
:1014D000002906D15C480068400840005A4908606D
:1014E00010E0C9B2012906D15748006850F0010048
:1014F0005549086006E0C9B2022903D100215248CB
:10150000FFF75AFD9FE0C9B2002906D15148006893
:1015100030F400404F49086010E0C9B2012906D1FB
:101520004C48006850F400404A49086006E0C9B2DF
:10153000022903D10F214748FFF73EFD83E0C9B2DE
:10154000002906D14148006830F400303F49086066
:1015500010E0C9B2012906D13C48006850F40030BF
:101560003A49086006E0C9B2022903D1112137487F
:10157000FFF722FD67E0C9B2002906D134480068B0
:1015800030F000503249086010E0C9B2012906D19C
:101590002F48006850F000502D49086006E0C9B29D
:1015A000022903D11D212A48FFF706FD4BE0C9B2ED
:1015B000002918D12748006830F400402549086008
:1015C00021480068400840001F4908601F48006823
:1015D00030F400301D4908601D48006830F00050AC
:1015E0001B4908602EE0C9B2012918D119480068CA
:1015F00050F40040174908601348006850F001009B
:10160000114908601148006850F400300F49086023
:101610000F48006850F000500D49086012E0C9B250
:1016200002290FD111210948FFF7C6FC1D210848E6
:10163000FFF7C2FC00210448FFF7BEFC0F2105485C
:10164000FFF7BAFCFFE701BD80F00F4000F00F404C
:1016500000F10F40C0F00F402DE9F84F92B0154651
:10166000029100211C9ADFF804828DF82F20814618
:101670009A4608910FF28C464FF0FF370CE0252870
:101680000FD015F8011B0298C8470028029000F0FF
:10169000D7800898401C089028780028EFD1089837
:1016A000E6E000200021002205900691079201E06B
:1016B00041F0010115F8010F2028F9D023280CD0A2
:1016C0002B2804D02D2805D0302809D0BAE041F0CD
:1016D0000201EFE741F00401ECE741F00801E9E71E
:1016E00041F01001E6E70A9209E00A98404505DA60
:1016F00000EB800402EB4402303A0A926D1C2A7817
:10170000A2F130000A28F0D328782E2818BF0997B4
:1017100025D115F8010F2A280AD1DAF80000CAF8F5
:1017200000006D1C50F8042BCAF80000099216E066
:101730002D280CBF6D1C0020002209920AE040B940
:10174000099A424505DA02EB820403EB4403303B7D
:1017500009936D1C2B78A3F130020A2AEFD3ADF860
:101760002C103046297800F0DFF908B115F8010B8C
:101770008DF82E009DF82E00682804BF297868296E
:1017800003D162208DF82E006D1C0CA804905246E7
:1017900015F8013B01A9484600F098F800284FD100
:1017A0000A980599079A069C401A801A041B9DF80E
:1017B0002C0041070FD42020002C8DF800000ADDFA
:1017C000A34601236A4601A9484600F084F9B8BB44
:1017D000BBF1010BF5D1059B0CAA01A9484600F00D
:1017E0007AF968BBDDF81CB03020BBF1000F8DF832
:1017F000000009DD01236A4601A9484600F06BF9A3
:10180000F0B9BBF1010BF5D1069B039A01A948463B
:1018100000F061F9A0B99DF82C0041077FF53CAFBD
:101820002020002C8DF800007FF736AF01236A4698
:1018300001A9484600F04FF910B9641EF6D12BE714
:10184000384615E02A287FF44EAFDAF80020CAF8AF
:10185000002052F8040BCAF8002000280A9003D593
:1018600040420A9041F004016D1C4DE7CBCCCC0CFA
:1018700013B0BDE8F08F62280ED0682819D1002A75
:101880000A680A60106803D0121D0A6000B217E0EF
:10189000121D0A6080B217E0002A0A680A60106808
:1018A00003D0121D0A6040B20AE0121D0A60C0B2E5
:1018B0000AE0002A0A680A60106803D0121D0A6054
:1018C000C1177047121D0A600021704770B51C4691
:1018D0000D46252CEE68114600F08480582C37D038
:1018E000632C0ED0642C18BF692C14D06F2C2FD011
:1018F000702C49D0732C53D0752C18BF782C27D05E
:1019000076E02869421C2A610A680A6052F8043BA2
:101910000A60335476E095F82A000122FFF7ABFF06
:101920000028286004D52869411C29612D220DE07A
:10193000288D810704D52869411C29612B2205E0E7
:10194000C0071CD52869411C29612022325416E0A9
:1019500095F82A000022FFF78EFF286095F82800EE
:1019600001070CD5286850B144F02001782906D130
:10197000286930213154401C421C2A6134542146CC
:1019800028693044A86007E00868086050F8042B14
:1019900008602A60AE607821284600F035F831E012
:1019A0000868086050F8044B0860AC603CB900BFA0
:1019B00056A000F0E1F84FF0FF34201A70BD2E6AF7
:1019C000002E04D5204600F0F7F8044608E0324621
:1019D0000021204600F010F9002814BF041B3446F3
:1019E0006C610FE02869411C29612522325409E00D
:1019F0002969481C286125227254210002D0431C09
:101A00002B613454002070BDF0B402466F29D468B5
:101A100008BF082605D041F02000782814BF0A2608
:101A2000102618251368642918BF6929184602D1A1
:101A3000002B48BF4042F0B9136AE3B9082E39D1F0
:101A400092F82800010735D530201725E07531E0E0
:101A500000280ED592F8280000F01400102808D1B4
:101A6000546A11699069641A241AE31A012BA8BFF9
:101A70009361F0BC7047B0FBF6F706FB17003030FF
:101A80006D1EC3B23A2BA4BFA1F1510318186055C3
:101A9000380003D093686719BB42ECD3082E09D1F4
:101AA00092F82800010705D5605D302802D06D1E30
:101AB00030206055C5F11803106A536161198342E3
:101AC0009160C5DA118DC31A4FF6EF700140936132
:101AD0001185F0BC7047F8B505460E4617461C4602
:101AE000002074B117F8011B7068A847706030B10E
:101AF000F069401CF0610020641EF3D1F2BD4FF08C
:101B0000FF30F2BD686C747A4C0000007072696E30
:101B100074665F733A206261642025732061726786
:101B2000756D656E740000000278C9B28A421AB100
:101B30001CBF10F8012FF9E718BF0020704730B420
:101B4000002513E050F8042BD30744BFA9F101038B
:101B50009A18091F042942F8045BFAD213468C072D
:101B600044BF15809B1CC90748BF1D7050F8041B5B
:101B70000029E7D130BC704780B500B906A00549FF
:101B80000B681BB122220021984701E000F060F8A9
:101B9000222002BD9C580020636F6E7374726169CD
:101BA0006E742068616E646C65723A2062616420B4
:101BB0006D6573736167650000F10103810704D0EF
:101BC00010F8011B820781B1FAD10268A2F101313C
:101BD000914311F0803104BF50F8042FF6E709BAA1
:101BE000B1FA81F100EBD100401CC01A70470268C5
:101BF000531C036011707047C9B2830706D0521E90
:101C000022D310F8013B9942F7D11FE0083A13D3D1
:101C100002F1040241EA012141EA014150F8043B8A
:101C2000121F21BF4B40A3F1013C2CEA030C1CF016
:101C3000803FF3D0C9B2001F083210F8013B521E9A
:101C400028BF91EA030FF8D818BF0120401E704743
:101C5000012000F001B8FEE780B5AFF30080024A32
:101C600011001820ABBEFBE726000200811DDFF843
:101C7000B00401430878C0B27047801D50F0905006
:101C80000078C0B27047801D50F080500078C0B21C
:101C900070478901001D50F0985001707047801DF9
:101CA00050F098500078C0B2002801D0012000E028
:101CB0000020C0B27047801D50F094500078C0B230
:101CC000002801D0012000E00020C0B27047801D34
:101CD00050F084500078C0B2002801D0012000E00C
:101CE0000020C0B270472DE9F04106004FF40077A4
:101CF0003000FFF7BBFF80463000FFF7BEFF040057
:101D0000701C50F0845005783000FFF7D4FF5FFA64
:101D100088F8B8F1000F07D0B8F1020F1BD00DD32F
:101D2000B8F1030F26D02DE0C0B2002805D1E4B2EF
:101D3000002C01D1082700E0012723E0E4B2012CA8
:101D400008D1C0B2002805D1EDB2002D01D1022783
:101D500000E0042716E0E4B2002C0AD1EDB2002D19
:101D600006D1C0B2002801D0402702E0102700E0D1
:101D7000202707E0E4B2002C03D1C0B2002800D035
:101D80008027FFE7380000B2BDE8F0812DE9F0417F
:101D900005000E00170000240020E91C51F09C51A2
:101DA00008702800FFF769FF002805D195F8038027
:101DB00098F02000E8700124287810F03B0050F0E3
:101DC000040028702800FFF758FF0128FAD1E4B278
:101DD000002C01D085F803802800FFF747FF00287A
:101DE000FAD1E87810F09F00710111F0600108430A
:101DF000E870E91CCB48014308783100C0B2C9B291
:101E00008842F6D13800002800D0B8470020BDE84D
:101E1000F0812DE9F041050090461E0000242800C5
:101E2000FFF72BFF012804D1EF7897F02000E8702E
:101E30000124287810F003005FEAC80818F0380879
:101E400058EA000885F80080681C50F08850007837
:101E5000C0B2002804D02800FFF739FF0028FAD0CC
:101E60002800FFF70AFF0028FAD1E4B2002C00D0C6
:101E7000EF700699E87810F01F0050EAC6104A018A
:101E800012F060021043E870EA1CA6480243107882
:101E90000A00C0B2D2B29042F6D12800FFF7E6FEA7
:101EA0000028FAD107980100002900D080470020BF
:101EB000BDE8F0812DE9F84305000E0017009846B3
:101EC00000240020E91C51F09C5108702800FFF705
:101ED000D4FE002805D195F8039099F02000E87011
:101EE0000124287810F03B0050F0440028702800AE
:101EF000FFF7C3FE0128FAD1E4B2002C01D085F827
:101F00000390FFB2012F04D14146C9B2280000F06E
:101F1000D5F9697811F0FC0117F0010001436970EF
:101F20002800FFF7B0FE3900C9B28842F8D1E8783E
:101F300010F09F00710111F060010843E870E91C86
:101F40007848014308783100C0B2C9B28842F6D15E
:101F50002800FFF78BFE0128FAD10898010000291C
:101F600000D080470020BDE8F2832DE9F041050054
:101F700017001E0000240020691D51F098510870C0
:101F80002800FFF798FE0028FAD10020691C51F0C4
:101F9000845108702800FFF770FE012805D195F8DC
:101FA000038098F02000E8700124287810F00300E6
:101FB000FF0017F03807074357F080072F702800FD
:101FC000FFF75BFE0028FAD1E4B2002C01D085F8BF
:101FD0000380681C50F088500078C0B2002804D0FC
:101FE0002800FFF774FE0028FAD00699E87810F070
:101FF0001F0050EAC6104A0112F060021043E87058
:10200000EA1C4848024310780A00C0B2D2B290429B
:10201000F6D12800FFF72AFE0228FAD1079801001E
:10202000002900D080470020BDE8F08138B50400C9
:102030001500EDB2012D03D1C9B2200000F03EF928
:10204000617811F0FE0115F00100014351F0020129
:1020500061702000FFF717FE2900C9B28842F8D14D
:10206000002032BD80B50222431C53F084531A7005
:10207000C9B200F091F8002002BD70B504000E0056
:102080001D000020611C51F08451087080202649F9
:10209000214308702000FFF7E9FD0228FAD1310042
:1020A000C9B2200000F078F800212000FFF7F1FD10
:1020B0000020611D51F0985108702000FFF7FBFDD2
:1020C0000028FAD10498217911F0F80115F00705DC
:1020D0000D432571617911F0E00110F01F000843F4
:1020E00060714020611D51F0985108702000FFF789
:1020F000E2FD0128FAD12000FFF7D1FD0028FAD037
:10210000002070BD10B5040000200749214308706D
:102110002000FFF7ABFD0328FAD1002010BD00001E
:10212000000010110000901200001013811DDFF854
:10213000200301430878C0B27047401C50F0805023
:1021400001707047801D50F080500078C0B2704719
:10215000801D50F098500078C0B2002801D00120B6
:1021600000E00020C0B27047801D50F0945000780D
:10217000C0B2002801D0012000E00020C0B27047AA
:10218000801D50F084500078C0B2002801D001209A
:1021900000E00020C0B2704710B50400601C50F091
:1021A00088500078C0B2002804D02000FFF7E8FF74
:1021B0000028FAD010BDDFF89C0200687047D140BB
:1021C000DBB2002B13D0D2B2002A052A04D9921F09
:1021D00004D0521E06D009E0490908E01420B1FBE2
:1021E000F0F104E00C20B1FBF0F100E00021080068
:1021F000704710B582B0040054F088500078C0B227
:10220000002815D12000FFF7D6FF010054F08D50B3
:102210000278631CDFF8400203431B780020C0B241
:102220000090DBB2D2B22000FFF7C9FF010002E04C
:10223000DFF828020168080016BD10B4D2B2002AE7
:1022400005D048F2010081420AD3002012E047F68F
:102250001220081A41F68664A04201D3002009E04A
:10226000DFF8FC01DBB200EB8300D2B230F81200E1
:102270004143080010BC704710B504002000FFF770
:1022800073FF002801D0002017E02000FFF7B1FF06
:102290000100002901D100200FE0E01C50F09C500B
:1022A0000278E31CDFF8BC0103431B78DBB2D2B237
:1022B0002000FFF7C2FF0100080010BD38B5040080
:1022C0000D0014F1080050F0855000782900C0B2CC
:1022D000C9B2884229D0601C50F080500078C0B24A
:1022E000002808D1207A10F0D0006D0015F00E05FE
:1022F0000543257219E000212000FFF71EFF200092
:10230000FFF720FF0028FAD1207A10F0D0006D00EE
:1023100015F00E050543257201212000FFF70DFF82
:102320002000FFF70FFF0128FAD131BD80B5FFF77C
:1023300042FF02BD10B50400A01D50F0945000787B
:10234000C0B2002808D1201D50F098500078C0B2CB
:10235000002801D1002012E02000FFF7E7FF211D37
:1023600051F081510978491CC9B2B0FBF1F0611DEF
:1023700051F0825109781031C9B24843400810BD6C
:1023800010B50400607910F0E00012F01F02024363
:102390006271207910F0D80050EA431011F0070163
:1023A000014351F0400121712000FFF7D1FE0028C8
:1023B000FAD010BD010051F084500078C0B200285E
:1023C00001D1002010E0481C50F080500078C0B2CD
:1023D000002802D12148006806E02348006808313F
:1023E00051F085510978C840704710B504002000AD
:1023F000FFF79CFEC0B2002808D002280ED009D3F7
:1024000003280FD12000FFF795FF0CE02000FFF715
:1024100033FF08E02000FFF7CDFF04E02000FFF7C6
:10242000CAFE00E0002010BD10B4447814F0C304CC
:10243000090111F030012143D20012F008021143CA
:102440009B0013F004031943417010BC7047000057
:102450000000101170000020000010120400002085
:10246000643800000000901200000020000000000E
:10247000000000000000000000000000000000005C
:10248000000000000000000000000000000000004C
:102490000000000000003F3F3F3F3FC0C0C0C0C041
:1024A000000000000000000000000000000000002C
:1024B000000000000000000000000000000000001C
:1024C000000000000000000000000000000000000C
:1024D00000000000000080C0E0E0F0F0F0F000003C
:1024E000000000F0F0F0F0F0F0F0F0F0F0F0F0F0BC
:1024F000F0F0F0F0F0F0F0F0F0F0F0F0F0F0F0F0DC
:10250000F0F0F007070707070000000000000000D8
:102510000000E0F0F0F0000000000060E0E0C0002B
:102520000000000000C0E0E0E060606060707030BB
:102530003000E0E0E0E02060E0E0E040F0FEFFFF9F
:10254000FFFFFFFFFFFF0000000000FFFFFFFFFF96
:10255000FFFFFFFF1F1F1F1F1F1F1F1F1F1F1F1F0B
:102560001F1F1F1F1F1F1FFFFFFFFFFEFEFEFEFEA0
:102570000000000606060606C6FEFFFF1F07060649
:10258000FEFEFE06060686C66606000000FFFFFF8A
:10259000FF3030F0F0F0F0303000FFFFFFFF407808
:1025A000FFFFFF80FFFFFFFFFFFFFFFFFFFF0000B8
:1025B000000000FFFFFFFFFFFFFFFFFF0000000024
:1025C000000000000000000000000000000000FF0C
:1025D000FFFFFFFFFFFFFFFF0000000000C0F0FE55
:1025E000FF3F0780C0C06070FFFFFF0E07030100C0
:1025F0000000000000FFFFFFFF0000FFFFFFFF00E3
:102600000000FFFFFFFF0000FFFFFFFFFFFFFFFFD6
:10261000FFFFFFFFFFFF0000000000FFFFFFFFFFC5
:10262000FFFFFFFF000000000000000000000000AE
:1026300000000000000080FFFFFFFFFFFFFFFFFF23
:10264000000000040F0F0703000003010100000059
:10265000070F0F0E0C0C0C0C0C0C000004070707E6
:1026600007060203030303030300070F0F07030317
:1026700003030100FFFFFFFFFFFFFFFFFFFF00005D
:10268000000000FFFFFFFFFFFFFFFFFFFFFFFFFF57
:10269000FFFFFFFFFFFFFFFFFFFFFFFFFFFFFFFF4A
:1026A000FFFFFFFFFFFFFFFF000000424242FEFE70
:1026B000FFE743434100061E3E3C3000FFFFFFFFA3
:1026C000000000004040FFFFFFFF4000080808082E
:1026D0000808FFFFFFFF0808080808087FFFFFFF42
:1026E000FFFFFFFFFFFFC0C0C0C0C0C1C1C1C1C16B
:1026F000C1C1C1C1C1C1C1C1C1C1C1C1C1C1C1C1CA
:10270000C1010101010101FFFFFFFFFFFFFFFFFF0B
:10271000000000FFFF00FFFFFF00FEFF0000030FAF
:102720001F1E1800FFFFFFFF808000008080FFFF5A
:10273000FFFF400000021A7AFAF2E38383C3F2FE3D
:102740007E3E0E0000070F1F3F3F7F7F7F7F7F7F12
:102750007F7F7F7F7F7F7F7F7F7F7F7F7F7F7F7F89
:102760007F7F7F7F7F7F7F7F7F0000000000007F73
:102770007F7F3F3F1F0F07000000007F7F007F7FAC
:102780007F003F7F00000301010101017F7F7F7F08
:102790000000000040607F7F7F3F000000406070CD
:1027A000787D3F1F1F3F7F78706040008901DFF810
:1027B000F822104301707047811DDFF8F0020143D9
:1027C0000878C0B27047490050F0845001707047DB
:1027D00050F0805001707047401C50F080500170E4
:1027E0007047801D50F080500078C0B2704789015A
:1027F000001D50F0985001707047801D50F08450BB
:102800000078C0B2002801D0012000E00020C0B252
:102810007047C90150F09C5001707047490150F059
:102820009450017070478901821CDFF87C020243DA
:102830001170704747F2305100E000BF0800411EA0
:102840000028FAD1704738B50400002524B2B4F549
:10285000807F09DB4FF443729549964800F036F9C2
:10286000AFF3008000E06D1C24B22000E840C007F8
:10287000F9D52800C0B232BD2DE9FC410400002585
:1028800000268E48FFF72FFA00B2FFF7DCFF8046E4
:10289000B4F90000FFF7D7FF070089485FFA88F80E
:1028A00000EBC800FFB210F807805FFA88F8B8F1B3
:1028B000000F0FD0B8F1020F33D01DD3B8F1040FC1
:1028C00023D00DD3B8F1060F37D030D3B8F1070FAE
:1028D0004ED051E0784AE1797848FFF757FA4BE05B
:1028E00075480190E0790090237AA2792900C9B255
:1028F0007248FFF78EFA3FE000200090637922795A
:10290000E1796E48FFF7D6FA36E000200190E079D1
:102910000090237AA2792900C9B26848FFF725FB05
:102920002AE0227961796548FFF780FB24E02900DD
:10293000C9B26248FFF796FB1EE0FFB2072F02D034
:10294000FFB2062F0AD1207B0090E37A3200D2B288
:102950002900C9B25948FFF790FB08E00221574807
:10296000FFF724FF5548FFF727FF0228FAD103E0BD
:102970005248FFF7C7FBFFE740463900C0B2C9B273
:1029800088428AD1A1784D48FFF71DFFE1784B4876
:10299000FFF71EFFA078002811D02079012803D16D
:1029A00061794648FFF78AFC21794448FFF714FF14
:1029B0004248FFF716FF2179C0B28142F8D1607A10
:1029C000002806D0A37A227BE17A3C48FFF7D8FCA6
:1029D00003E000213948FFF70AFF0020BDE8F68137
:1029E00038B504000D00002C07D040F2FE3230490B
:1029F000304800F06BF8AFF300800021A87A01287E
:102A00001FD12879002801D0082100E00021687931
:102A1000002801D0042200E00022A879002801D07B
:102A2000022300E00023E879002801D0012000E023
:102A30000020114319430143224850F8240000F0BC
:102A400057F815F10B01200000F016F8AB7A2A7A3E
:102A5000697A1A48FFF7E8FCA87A012807D1E87AD2
:102A6000012804D11548FFF7C8FE0028FAD02868CD
:102A700015490860002032BD38B504000D00A97862
:102A8000104850F82400FFF7CEFE29780D4850F882
:102A90002400FFF7BEFE69780A4850F82400FFF7CB
:102AA000BDFE31BD00000000000010130000101139
:102AB00008350000D03800003528000000400640EE
:102AC00098360000E83800007000002000B583B0A0
:102AD0000091019202906A4604491820ABBE00287A
:102AE00001D1FFF7B5F803B000BD00BF1010020020
:102AF000027812F0F002114301707047202020206C
:102B0000FE000000FE8040201000101008047F002E
:102B100000003F40404070000808E828282A2C2880
:102B20002828E80808000020130A42427E02020A10
:102B30001320000000F090909090FE90909090F004
:102B40000000000F040404043F4444444447700060
:102B5000808282828282C2A2928A86828000000063
:102B6000000040407F00000000000000404848F89E
:102B7000444420C41800FE0000000804037F02043F
:102B8000020202027F0101001010FE1000909090DE
:102B9000FE909010000042427F0140402314081430
:102BA0002340400004FC2424FC0400FC040404FC36
:102BB0000000101F11097F08403302020213600059
:102BC00010608000FE000000FE00807000004040A9
:102BD00043407F4040407F4241404000701092940B
:102BE0009092949098941210700004040404444449
:102BF0007E06050404040400FC04649C0018484894
:102C00004A4C484818007F0808074022120E02026A
:102C10003E42620020202020A07E20E0242820A028
:102C200020004020100C2320103F444241407000FF
:102C300000FC444444C24200FC0444B40C00101F95
:102C40001010080F08007F0010100F0028A6643C29
:102C500064A420FC848484FC000001007E2A2A2ACB
:102C60002A2A2A2A7E000000109894929098300018
:102C70003E4848447400007F0A0A4A7F00003F44EF
:102C8000444271001090FE901000FC040404FC000B
:102C9000000002017F0041300F0000003F40700043
:102CA000809E9292929EC09E92B2D29E8000047CA0
:102CB0004A4A49780078494A4A7C040000000000EA
:102CC00000807E80000000000000404020100C03C7
:102CD00000030C10204040004042CC00846C544C57
:102CE000D444524E020040201F20425A52525F529A
:102CF000525A42001010FE100098482A0C0828482A
:102D0000980042427F01004042427E4242424000DF
:102D1000809E9292929EC09E92B2D29E8000047C2F
:102D20004A4A49780078494A4A7C04001010FE104B
:102D3000504858EA4C685848400042427F01424A95
:102D40002E13122A2642020000F80000FE00402046
:102D5000DE1010F01000000702017F00402017086D
:102D60001621400000302C20A0702E202020242886
:102D700020001008444241272911292543404000E2
:102D80008084980080929490F090949280004020EB
:102D90001F20405048464142445840001010FE1049
:102DA00000B88888EA8C8888B80042427F010040D9
:102DB00044271808142340002050CE4800C8B820EB
:102DC000A8FEA8F8200002023F5228102F204A7FB8
:102DD0004A4A480000000080800000000000000017
:102DE00000000000001919000000000000000000B1
:102DF000017070477CB50400A2215248FFF7F8FF2C
:102E00005148D0E90023CDE9002300F08DF8694650
:102E10004C4800F0E2F84D48006850F478504B49B7
:102E20000860E4B2002C36D0E4B2012C0AD0022CA7
:102E30000ED0032C12D0042C16D0052C1AD0072C3F
:102E40001ED023E004260E25414800F081F922E03F
:102E5000042614253F4800F07BF91CE004261825C1
:102E60003D4800F075F916E004261F253B4800F0A8
:102E70006FF910E003261825394800F069F90AE0D7
:102E800003261C25374800F063F904E003261C25BF
:102E9000344800F05DF9EDB215F1100132204143E4
:102EA000022091FBF0F0F6B2711C90FBF1F02E497C
:102EB00008602D48006840082C49086080202C4993
:102EC000087016F007062B4806702B4800682A4940
:102ED000096851F47021284A1160234909681E22AB
:102EE000B1FBF2F1090411F4702151F09871234AF9
:102EF00011602149086015F01F0555F04005204874
:102F00000570204800788006FBD51E4800784006F2
:102F1000FBD50020164908701A480078C0B2C0F3EB
:102F200081000328F8D173BD00B585B06846164905
:102F3000102200F051F969460020FFF751FD05B05D
:102F400000BD000000E00740E03800003880044089
:102F5000C0370000D8370000F03700000838000004
:102F6000203800003838000074000020780000206D
:102F7000004006400440064000F001404480044008
:102F800005400640064006409438000010B5040095
:102F90000021621C594802431170200000F0B4F86F
:102FA0000128FAD110BD10B504004021621C53481D
:102FB00002431170200000F0A7F80428FAD110BDD8
:102FC00010B504006021621C4C48024311702000BF
:102FD00000F09AF88028FAD110BD38B504000D0031
:102FE000200000F091F8C0B2012804D0042809D0D4
:102FF00080280FD01DE02878C00602D52000FFF7FA
:10300000D2FF16E0288810F4837F02D02000FFF75B
:10301000BDFF0EE0288840F20111084208D12000CF
:10302000FFF7B4FF2878C00602D52000FFF7BBFFEA
:10303000FFE7B5F9000001280FD0022819D00428B5
:1030400021D008280DD0102813D020281BD080288C
:1030500019D0B0F5807F08D04DE02000FFF796FF33
:1030600049E02000FFF79FFF45E02000FFF7A8FFA1
:1030700041E02348006830F004002149086060788E
:10308000009030BF37E069798901A21C1D480243D6
:103090001170A879C000A11C51F08C510870E8781B
:1030A0004001A11C51F09451087028790001A11C25
:1030B00051F090510870B5F90000042801D10020AA
:1030C0000BE0B5F90000202801D1022005E0042022
:1030D000A978A21C52F081521170611C51F08151EB
:1030E00008700748006850F00400054908606078DF
:1030F000009030BFFFE7002032BD000000009012BA
:1031000010ED00E000001013C078704741F2440158
:103110000144DFF8A80001430868C0B27047C9B293
:103120008904DFF89C2010430160704710B582B01D
:10313000040020790090E378A2786178DFF88800B5
:1031400000F08EF82178DFF88000FFF7E8FF13BD6C
:1031500010B582B00400002C08D1CE22DFF86C102C
:10316000DFF86C00FFF7B2FCAFF30080072000909F
:10317000072301220021DFF8500000F071F8200041
:10318000FFF77AFB14F11100FFF7D0FF14F10E01E5
:103190000020FFF771FC00F005F8DFF83810086038
:1031A000002016BD10B50748FFF71FF904000648B8
:1031B000FFF7ACFF401CB4FBF0F010BD0000301E68
:1031C000000010190040064000700440A4340000C4
:1031D000D838000020000020103A07D330B4B1E8FE
:1031E0003810103AA0E83810F9D230BC530724BF89
:1031F000B1E80810A0E8081044BF51F8043B40F8BB
:10320000043BD20724BF31F8022B20F8022B44BF25
:103210000B7803707047121F17D35B0009D151F868
:10322000043B20F8023B1B0C121F20F8023BF6D295
:103230000BE051F8043B00F8013B1B0A20F8023B6D
:103240001B0C121F00F8013BF3D238BF121D521E97
:1032500024BF11F8013B00F8013BF8D87047FEE7A6
:1032600030B4029C41F244054559ADB2C9B255EAA9
:103270000175D2B2120612F070622A43DBB21B054E
:1032800013F470031A43E4B2240414F470242243A8
:1032900041F24401425030BC7047FEE7BFF34F8F0C
:1032A000BFF36F8F0020274908602748006850F45B
:1032B000003025490860BFF34F8FBFF36F8F704711
:1032C00010B4002021490860BFF34F8F20480168E7
:1032D000C1F34E32C1F3C90343F6E07010EA421065
:1032E00050EA83701B4C20601800431E0028F3D165
:1032F0001000421E0028EDD1BFF34F8F1248006826
:1033000050F4803010490860BFF34F8FBFF36F8FC8
:1033100010BC704780B51048006850F470000E492A
:1033200008604CF220500D4908804DF628100B49DA
:1033300008804FF4E9700A490880FFF7AFFFFFF7F4
:10334000BFFF01BD50EF00E014ED00E084ED00E0B0
:1033500080ED00E060EF00E088ED00E00E20054029
:103360000020054080B50123002214212348FDF7E9
:10337000DFFD0123002215212048FDF7D9FD01239F
:10338000002216211D48FDF7D3FD01BD80B5142094
:103390001B490968C140C9070BD5194909680122B1
:1033A00012FA00F008431649086002210020FEF7D7
:1033B00081F8152012490968C140C9070BD5104989
:1033C0000968012212FA00F008430D490860022141
:1033D0000120FEF76FF8162009490968C140C907A6
:1033E0000BD507490968012212FA00F00843044985
:1033F000086002210220FEF75DF801BD40F00F4099
:10340000A0A00440DFF800F02500002080B5DFF820
:1034100084000068800425D5DFF87800006850F447
:103420000050DFF870100860DFF86C000078792831
:1034300004DB0020DFF86010087029E0BC22DFF810
:103440005C10DFF854000378BC2043431944042087
:10345000FFF7D8FFDFF840000078401CDFF8381095
:10346000087015E0DFF82C000068400410D5DFF884
:103470002400006850F48040DFF818100860002035
:10348000DFF8141008700120DFF814100870FFE74F
:1034900001BD0000A0C00440A05800207C00002016
:1034A000A1580020433A5C55736572735C4C656E9D
:1034B0006F766F5C4465736B746F705C636C617383
:1034C00073335C535254505C4C515F4B5635384605
:1034D0003234E7ACAC33E7898832303138303432BB
:1034E000345C4C51757365725C73797374656D5C93
:1034F00066736C5F636C6F636B5F4D4B563538461C
:1035000032342E6300000000433A5C5573657273D9
:103510005C4C656E6F766F5C4465736B746F705C4A
:10352000636C617373335C535254505C4C515F4B0A
:10353000563538463234E7ACAC33E789883230311F
:1035400038303432345C4C51757365725C73797306
:1035500074656D5C66736C5F636C6F636B5F6D61EC
:103560006E616765722E630080B50420FFF742FC30
:10357000FFF7F8FEFDF784FF5FF4E1310420FDF76B
:10358000FFFDFDF713FBFDF7F5FAFDF7ACFC0B4A69
:1035900000210820FDF703FC4FF4FA70FDF722FD2F
:1035A000FDF7E8FA3220FDF71DFD62B60121062085
:1035B000FDF780FFFDF782FDFEE700BF50380000F9
:1035C00080B51048006850F001000E4908600221E3
:1035D0000220FDF76FFF01BD0B48006850F00100AD
:1035E0000949086070470848006850F00100064922
:1035F000086070470548006850F001000349086002
:10360000704700000C7103401C7103403C71034083
:1036100080B50E4801680E480068800714D500295F
:1036200012D0D1E90423521C73F1FF33C1E9042302
:103630008869002808D0486A002802D00120086262
:1036400002E0C8698969884701BD00006C0000205C
:1036500010E000E00C480D49884210D0002006E040
:103660000A4951F82010084A42F82010401C084925
:10367000B0EB910FF4D304480649086002E0034818
:1036800004490860704700BF00000000000000000F
:103690000000000008ED00E0000101030404040440
:1036A00000010203040404040101020101010101FB
:1036B00000010103040404040001010304050606DB
:1036C00004040404040506060404040404050607AF
:1036D0000606060606060606B1B1BEA9B5E7D7D3AB
:1036E000BFC6BCBCD6B0D2B5D1A7D4BAC1FAC7F157
:1036F000D6C7C4DCBBFAC6F7C8CBD2A3BFD8C6F7BF
:10370000BDD3CAD5B7A2CBCDB0B4BCFCA3BA000020
:1037100010B5074979441831064C7C44163404E04E
:103720000A68081D114488470146A142F8D110BD1E
:103730002C000000380000004EF68851CEF2000147
:10374000086840F470000860BFF34F8FBFF36F8FBD
:103750004FF00070E1EE100A70470000E3E3FFFF56
:10376000385800006C00002000000000FEE7000058
:1037700000F00DF8002801D0FFF7CAFFAFF300807A
:103780000020AFF30080FFF7EFFE00F002F8012009
:10379000704700F001B8FEE707463846FEF75CFACE
:1037A000FBE7FEE772B6034880470348804762B6EE
:1037B000024800471533000055360000C5380000A8
:1037C0008000010000000600000000030800010066
:1037D000000300010105000080000100000003005B
:1037E00000000004140001000003000102070000B3
:1037F0008000010000000300000000041800010028
:103800000003000102070000800001000000030027
:10381000000000041F000100000300010309000074
:1038200080000100000003000000000318000100F8
:1038300000030001030900008000010000000600F1
:10384000000000031C000100000300010309000048
:10385000B1B1BEA9C1FAC7F1D6C7C4DCBFC6BCBCF2
:10386000000000008002DC020005B8058007950812
:10387000000A710B4C51204C50544D5220646C790D
:10388000000000004C50544D523A20253035642041
:103890000A00000080F0FA020000000000020000B0
:1038A0000000000080B5FFF7B3FEBFF34F8FBFF3FA
:1038B0006F8F01BDFFFFFFFFFFFFFFFFFFFFFFFF58
:1038C000FEFFFFFFAFF30080FFF736FFFFF750FF6B
:1038D0007465737400000000746573740000000068
:1038E000000100000000000000500640FFF7FEBF8E
:0438F000FEE7FEE70A
:020000042000DA
:1000000000093D000080000000A0064000B006404E
:1000100000C0064000D0064000A00E4000B00E40D8
:100020000000400110B40F4BC0B2440123441961D9
:1000300011004904490C0B4BC0B244012344D9823E
:10004000D205D20D0749C0B243011944CA830649FB
:100050000968012212FA00F008430349086010BC45
:1000600070470000009000400C800040000000003D
:100070000000000000000000000000000000000080
:100080000000000000000000000000000000000070
:100090000000000000000000000000000000000060
:1000A0000000000000000000000000000000000050
:0458A0000000000004
:04000005000038C5FA
:00000001FF
